{
	"contracts/Juliet.sol": {
		"Sender": {
			"abi": [
				{
					"anonymous": false,
					"inputs": [
						{
							"indexed": false,
							"internalType": "bool",
							"name": "success",
							"type": "bool"
						},
						{
							"indexed": false,
							"internalType": "bytes",
							"name": "data",
							"type": "bytes"
						}
					],
					"name": "Response",
					"type": "event"
				},
				{
					"inputs": [
						{
							"internalType": "address payable",
							"name": "_extAddr",
							"type": "address"
						}
					],
					"name": "callFoo",
					"outputs": [],
					"stateMutability": "payable",
					"type": "function"
				},
				{
					"inputs": [
						{
							"internalType": "address payable",
							"name": "_addr",
							"type": "address"
						}
					],
					"name": "callGhost",
					"outputs": [],
					"stateMutability": "payable",
					"type": "function"
				}
			],
			"devdoc": {
				"kind": "dev",
				"methods": {},
				"version": 1
			},
			"evm": {
				"assembly": "    /* \"contracts/Juliet.sol\":442:1051  contract Sender {... */\n  mstore(0x40, 0x80)\n  callvalue\n  dup1\n  iszero\n  tag_1\n  jumpi\n  0x00\n  dup1\n  revert\ntag_1:\n  pop\n  dataSize(sub_0)\n  dup1\n  dataOffset(sub_0)\n  0x00\n  codecopy\n  0x00\n  return\nstop\n\nsub_0: assembly {\n        /* \"contracts/Juliet.sol\":442:1051  contract Sender {... */\n      mstore(0x40, 0x80)\n      jumpi(tag_1, lt(calldatasize, 0x04))\n      shr(0xe0, calldataload(0x00))\n      dup1\n      0x683a47c1\n      eq\n      tag_2\n      jumpi\n      dup1\n      0xedcbe76c\n      eq\n      tag_3\n      jumpi\n    tag_1:\n      0x00\n      dup1\n      revert\n        /* \"contracts/Juliet.sol\":807:1049  function callGhost(address payable _addr) public payable {... */\n    tag_2:\n      tag_4\n      0x04\n      dup1\n      calldatasize\n      sub\n      dup2\n      add\n      swap1\n      tag_5\n      swap2\n      swap1\n      tag_6\n      jump\t// in\n    tag_5:\n      tag_7\n      jump\t// in\n    tag_4:\n      stop\n        /* \"contracts/Juliet.sol\":511:801  function callFoo(address payable _extAddr) public payable {... */\n    tag_3:\n      tag_8\n      0x04\n      dup1\n      calldatasize\n      sub\n      dup2\n      add\n      swap1\n      tag_9\n      swap2\n      swap1\n      tag_6\n      jump\t// in\n    tag_9:\n      tag_10\n      jump\t// in\n    tag_8:\n      stop\n        /* \"contracts/Juliet.sol\":807:1049  function callGhost(address payable _addr) public payable {... */\n    tag_7:\n        /* \"contracts/Juliet.sol\":875:887  bool success */\n      0x00\n        /* \"contracts/Juliet.sol\":889:906  bytes memory data */\n      dup1\n        /* \"contracts/Juliet.sol\":910:915  _addr */\n      dup3\n        /* \"contracts/Juliet.sol\":910:920  _addr.call */\n      0xffffffffffffffffffffffffffffffffffffffff\n      and\n        /* \"contracts/Juliet.sol\":928:937  msg.value */\n      callvalue\n        /* \"contracts/Juliet.sol\":952:993  abi.encodeWithSignature(\"doesNotExist()\") */\n      add(0x24, mload(0x40))\n      mload(0x40)\n      0x20\n      dup2\n      dup4\n      sub\n      sub\n      dup2\n      mstore\n      swap1\n      0x40\n      mstore\n      and(not(0xffffffffffffffffffffffffffffffffffffffffffffffffffffffff), 0x1dcc85ae00000000000000000000000000000000000000000000000000000000)\n      0x20\n      dup3\n      add\n      dup1\n      mload\n      0xffffffffffffffffffffffffffffffffffffffffffffffffffffffff\n      dup4\n      dup2\n      dup4\n      and\n      or\n      dup4\n      mstore\n      pop\n      pop\n      pop\n      pop\n        /* \"contracts/Juliet.sol\":910:1003  _addr.call{value: msg.value}(... */\n      mload(0x40)\n      tag_12\n      swap2\n      swap1\n      tag_13\n      jump\t// in\n    tag_12:\n      0x00\n      mload(0x40)\n      dup1\n      dup4\n      sub\n      dup2\n      dup6\n      dup8\n      gas\n      call\n      swap3\n      pop\n      pop\n      pop\n      returndatasize\n      dup1\n      0x00\n      dup2\n      eq\n      tag_16\n      jumpi\n      mload(0x40)\n      swap2\n      pop\n      and(add(returndatasize, 0x3f), not(0x1f))\n      dup3\n      add\n      0x40\n      mstore\n      returndatasize\n      dup3\n      mstore\n      returndatasize\n      0x00\n      0x20\n      dup5\n      add\n      returndatacopy\n      jump(tag_15)\n    tag_16:\n      0x60\n      swap2\n      pop\n    tag_15:\n      pop\n        /* \"contracts/Juliet.sol\":874:1003  (bool success, bytes memory data) = _addr.call{value: msg.value}(... */\n      swap2\n      pop\n      swap2\n      pop\n        /* \"contracts/Juliet.sol\":1019:1042  Response(success, data) */\n      0x13848c3e38f8886f3f5d2ad9dff80d8092c2bbb8efd5b887a99c2c6cfc09ac2a\n        /* \"contracts/Juliet.sol\":1028:1035  success */\n      dup3\n        /* \"contracts/Juliet.sol\":1037:1041  data */\n      dup3\n        /* \"contracts/Juliet.sol\":1019:1042  Response(success, data) */\n      mload(0x40)\n      tag_17\n      swap3\n      swap2\n      swap1\n      tag_18\n      jump\t// in\n    tag_17:\n      mload(0x40)\n      dup1\n      swap2\n      sub\n      swap1\n      log1\n        /* \"contracts/Juliet.sol\":864:1049  {... */\n      pop\n      pop\n        /* \"contracts/Juliet.sol\":807:1049  function callGhost(address payable _addr) public payable {... */\n      pop\n      jump\t// out\n        /* \"contracts/Juliet.sol\":511:801  function callFoo(address payable _extAddr) public payable {... */\n    tag_10:\n        /* \"contracts/Juliet.sol\":580:592  bool success */\n      0x00\n        /* \"contracts/Juliet.sol\":594:611  bytes memory data */\n      dup1\n        /* \"contracts/Juliet.sol\":615:623  _extAddr */\n      dup3\n        /* \"contracts/Juliet.sol\":615:628  _extAddr.call */\n      0xffffffffffffffffffffffffffffffffffffffff\n      and\n        /* \"contracts/Juliet.sol\":649:658  msg.value */\n      callvalue\n        /* \"contracts/Juliet.sol\":677:681  5000 */\n      0x1388\n        /* \"contracts/Juliet.sol\":615:756  _extAddr.call{... */\n      swap1\n        /* \"contracts/Juliet.sol\":751:754  500 */\n      0x01f4\n        /* \"contracts/Juliet.sol\":692:755  abi.encodeWithSignature(\"foo(strng,uint256)\", \"Call Mike\", 500) */\n      add(0x24, mload(0x40))\n      tag_20\n      swap2\n      swap1\n      tag_21\n      jump\t// in\n    tag_20:\n      mload(0x40)\n      0x20\n      dup2\n      dup4\n      sub\n      sub\n      dup2\n      mstore\n      swap1\n      0x40\n      mstore\n      and(not(0xffffffffffffffffffffffffffffffffffffffffffffffffffffffff), 0xf09858be00000000000000000000000000000000000000000000000000000000)\n      0x20\n      dup3\n      add\n      dup1\n      mload\n      0xffffffffffffffffffffffffffffffffffffffffffffffffffffffff\n      dup4\n      dup2\n      dup4\n      and\n      or\n      dup4\n      mstore\n      pop\n      pop\n      pop\n      pop\n        /* \"contracts/Juliet.sol\":615:756  _extAddr.call{... */\n      mload(0x40)\n      tag_22\n      swap2\n      swap1\n      tag_13\n      jump\t// in\n    tag_22:\n      0x00\n      mload(0x40)\n      dup1\n      dup4\n      sub\n      dup2\n      dup6\n      dup9\n      dup9\n      call\n      swap4\n      pop\n      pop\n      pop\n      pop\n      returndatasize\n      dup1\n      0x00\n      dup2\n      eq\n      tag_25\n      jumpi\n      mload(0x40)\n      swap2\n      pop\n      and(add(returndatasize, 0x3f), not(0x1f))\n      dup3\n      add\n      0x40\n      mstore\n      returndatasize\n      dup3\n      mstore\n      returndatasize\n      0x00\n      0x20\n      dup5\n      add\n      returndatacopy\n      jump(tag_24)\n    tag_25:\n      0x60\n      swap2\n      pop\n    tag_24:\n      pop\n        /* \"contracts/Juliet.sol\":579:756  (bool success, bytes memory data) = _extAddr.call{... */\n      swap2\n      pop\n      swap2\n      pop\n        /* \"contracts/Juliet.sol\":771:794  Response(success, data) */\n      0x13848c3e38f8886f3f5d2ad9dff80d8092c2bbb8efd5b887a99c2c6cfc09ac2a\n        /* \"contracts/Juliet.sol\":780:787  success */\n      dup3\n        /* \"contracts/Juliet.sol\":789:793  data */\n      dup3\n        /* \"contracts/Juliet.sol\":771:794  Response(success, data) */\n      mload(0x40)\n      tag_26\n      swap3\n      swap2\n      swap1\n      tag_18\n      jump\t// in\n    tag_26:\n      mload(0x40)\n      dup1\n      swap2\n      sub\n      swap1\n      log1\n        /* \"contracts/Juliet.sol\":569:801  {... */\n      pop\n      pop\n        /* \"contracts/Juliet.sol\":511:801  function callFoo(address payable _extAddr) public payable {... */\n      pop\n      jump\t// out\n        /* \"#utility.yul\":88:205   */\n    tag_28:\n        /* \"#utility.yul\":197:198   */\n      0x00\n        /* \"#utility.yul\":194:195   */\n      dup1\n        /* \"#utility.yul\":187:199   */\n      revert\n        /* \"#utility.yul\":334:460   */\n    tag_30:\n        /* \"#utility.yul\":371:378   */\n      0x00\n        /* \"#utility.yul\":411:453   */\n      0xffffffffffffffffffffffffffffffffffffffff\n        /* \"#utility.yul\":404:409   */\n      dup3\n        /* \"#utility.yul\":400:454   */\n      and\n        /* \"#utility.yul\":389:454   */\n      swap1\n      pop\n        /* \"#utility.yul\":334:460   */\n      swap2\n      swap1\n      pop\n      jump\t// out\n        /* \"#utility.yul\":466:570   */\n    tag_31:\n        /* \"#utility.yul\":511:518   */\n      0x00\n        /* \"#utility.yul\":540:564   */\n      tag_57\n        /* \"#utility.yul\":558:563   */\n      dup3\n        /* \"#utility.yul\":540:564   */\n      tag_30\n      jump\t// in\n    tag_57:\n        /* \"#utility.yul\":529:564   */\n      swap1\n      pop\n        /* \"#utility.yul\":466:570   */\n      swap2\n      swap1\n      pop\n      jump\t// out\n        /* \"#utility.yul\":576:714   */\n    tag_32:\n        /* \"#utility.yul\":657:689   */\n      tag_59\n        /* \"#utility.yul\":683:688   */\n      dup2\n        /* \"#utility.yul\":657:689   */\n      tag_31\n      jump\t// in\n    tag_59:\n        /* \"#utility.yul\":650:655   */\n      dup2\n        /* \"#utility.yul\":647:690   */\n      eq\n        /* \"#utility.yul\":637:708   */\n      tag_60\n      jumpi\n        /* \"#utility.yul\":704:705   */\n      0x00\n        /* \"#utility.yul\":701:702   */\n      dup1\n        /* \"#utility.yul\":694:706   */\n      revert\n        /* \"#utility.yul\":637:708   */\n    tag_60:\n        /* \"#utility.yul\":576:714   */\n      pop\n      jump\t// out\n        /* \"#utility.yul\":720:875   */\n    tag_33:\n        /* \"#utility.yul\":774:779   */\n      0x00\n        /* \"#utility.yul\":812:818   */\n      dup2\n        /* \"#utility.yul\":799:819   */\n      calldataload\n        /* \"#utility.yul\":790:819   */\n      swap1\n      pop\n        /* \"#utility.yul\":828:869   */\n      tag_62\n        /* \"#utility.yul\":863:868   */\n      dup2\n        /* \"#utility.yul\":828:869   */\n      tag_32\n      jump\t// in\n    tag_62:\n        /* \"#utility.yul\":720:875   */\n      swap3\n      swap2\n      pop\n      pop\n      jump\t// out\n        /* \"#utility.yul\":881:1226   */\n    tag_6:\n        /* \"#utility.yul\":948:954   */\n      0x00\n        /* \"#utility.yul\":997:999   */\n      0x20\n        /* \"#utility.yul\":985:994   */\n      dup3\n        /* \"#utility.yul\":976:983   */\n      dup5\n        /* \"#utility.yul\":972:995   */\n      sub\n        /* \"#utility.yul\":968:1000   */\n      slt\n        /* \"#utility.yul\":965:1084   */\n      iszero\n      tag_64\n      jumpi\n        /* \"#utility.yul\":1003:1082   */\n      tag_65\n      tag_28\n      jump\t// in\n    tag_65:\n        /* \"#utility.yul\":965:1084   */\n    tag_64:\n        /* \"#utility.yul\":1123:1124   */\n      0x00\n        /* \"#utility.yul\":1148:1209   */\n      tag_66\n        /* \"#utility.yul\":1201:1208   */\n      dup5\n        /* \"#utility.yul\":1192:1198   */\n      dup3\n        /* \"#utility.yul\":1181:1190   */\n      dup6\n        /* \"#utility.yul\":1177:1199   */\n      add\n        /* \"#utility.yul\":1148:1209   */\n      tag_33\n      jump\t// in\n    tag_66:\n        /* \"#utility.yul\":1138:1209   */\n      swap2\n      pop\n        /* \"#utility.yul\":1094:1219   */\n      pop\n        /* \"#utility.yul\":881:1226   */\n      swap3\n      swap2\n      pop\n      pop\n      jump\t// out\n        /* \"#utility.yul\":1232:1330   */\n    tag_34:\n        /* \"#utility.yul\":1283:1289   */\n      0x00\n        /* \"#utility.yul\":1317:1322   */\n      dup2\n        /* \"#utility.yul\":1311:1323   */\n      mload\n        /* \"#utility.yul\":1301:1323   */\n      swap1\n      pop\n        /* \"#utility.yul\":1232:1330   */\n      swap2\n      swap1\n      pop\n      jump\t// out\n        /* \"#utility.yul\":1336:1483   */\n    tag_35:\n        /* \"#utility.yul\":1437:1448   */\n      0x00\n        /* \"#utility.yul\":1474:1477   */\n      dup2\n        /* \"#utility.yul\":1459:1477   */\n      swap1\n      pop\n        /* \"#utility.yul\":1336:1483   */\n      swap3\n      swap2\n      pop\n      pop\n      jump\t// out\n        /* \"#utility.yul\":1489:1628   */\n    tag_36:\n        /* \"#utility.yul\":1578:1584   */\n      dup3\n        /* \"#utility.yul\":1573:1576   */\n      dup2\n        /* \"#utility.yul\":1568:1571   */\n      dup4\n        /* \"#utility.yul\":1562:1585   */\n      mcopy\n        /* \"#utility.yul\":1619:1620   */\n      0x00\n        /* \"#utility.yul\":1610:1616   */\n      dup4\n        /* \"#utility.yul\":1605:1608   */\n      dup4\n        /* \"#utility.yul\":1601:1617   */\n      add\n        /* \"#utility.yul\":1594:1621   */\n      mstore\n        /* \"#utility.yul\":1489:1628   */\n      pop\n      pop\n      pop\n      jump\t// out\n        /* \"#utility.yul\":1634:2020   */\n    tag_37:\n        /* \"#utility.yul\":1738:1741   */\n      0x00\n        /* \"#utility.yul\":1766:1804   */\n      tag_71\n        /* \"#utility.yul\":1798:1803   */\n      dup3\n        /* \"#utility.yul\":1766:1804   */\n      tag_34\n      jump\t// in\n    tag_71:\n        /* \"#utility.yul\":1820:1908   */\n      tag_72\n        /* \"#utility.yul\":1901:1907   */\n      dup2\n        /* \"#utility.yul\":1896:1899   */\n      dup6\n        /* \"#utility.yul\":1820:1908   */\n      tag_35\n      jump\t// in\n    tag_72:\n        /* \"#utility.yul\":1813:1908   */\n      swap4\n      pop\n        /* \"#utility.yul\":1917:1982   */\n      tag_73\n        /* \"#utility.yul\":1975:1981   */\n      dup2\n        /* \"#utility.yul\":1970:1973   */\n      dup6\n        /* \"#utility.yul\":1963:1967   */\n      0x20\n        /* \"#utility.yul\":1956:1961   */\n      dup7\n        /* \"#utility.yul\":1952:1968   */\n      add\n        /* \"#utility.yul\":1917:1982   */\n      tag_36\n      jump\t// in\n    tag_73:\n        /* \"#utility.yul\":2007:2013   */\n      dup1\n        /* \"#utility.yul\":2002:2005   */\n      dup5\n        /* \"#utility.yul\":1998:2014   */\n      add\n        /* \"#utility.yul\":1991:2014   */\n      swap2\n      pop\n        /* \"#utility.yul\":1742:2020   */\n      pop\n        /* \"#utility.yul\":1634:2020   */\n      swap3\n      swap2\n      pop\n      pop\n      jump\t// out\n        /* \"#utility.yul\":2026:2297   */\n    tag_13:\n        /* \"#utility.yul\":2156:2159   */\n      0x00\n        /* \"#utility.yul\":2178:2271   */\n      tag_75\n        /* \"#utility.yul\":2267:2270   */\n      dup3\n        /* \"#utility.yul\":2258:2264   */\n      dup5\n        /* \"#utility.yul\":2178:2271   */\n      tag_37\n      jump\t// in\n    tag_75:\n        /* \"#utility.yul\":2171:2271   */\n      swap2\n      pop\n        /* \"#utility.yul\":2288:2291   */\n      dup2\n        /* \"#utility.yul\":2281:2291   */\n      swap1\n      pop\n        /* \"#utility.yul\":2026:2297   */\n      swap3\n      swap2\n      pop\n      pop\n      jump\t// out\n        /* \"#utility.yul\":2303:2393   */\n    tag_38:\n        /* \"#utility.yul\":2337:2344   */\n      0x00\n        /* \"#utility.yul\":2380:2385   */\n      dup2\n        /* \"#utility.yul\":2373:2386   */\n      iszero\n        /* \"#utility.yul\":2366:2387   */\n      iszero\n        /* \"#utility.yul\":2355:2387   */\n      swap1\n      pop\n        /* \"#utility.yul\":2303:2393   */\n      swap2\n      swap1\n      pop\n      jump\t// out\n        /* \"#utility.yul\":2399:2508   */\n    tag_39:\n        /* \"#utility.yul\":2480:2501   */\n      tag_78\n        /* \"#utility.yul\":2495:2500   */\n      dup2\n        /* \"#utility.yul\":2480:2501   */\n      tag_38\n      jump\t// in\n    tag_78:\n        /* \"#utility.yul\":2475:2478   */\n      dup3\n        /* \"#utility.yul\":2468:2502   */\n      mstore\n        /* \"#utility.yul\":2399:2508   */\n      pop\n      pop\n      jump\t// out\n        /* \"#utility.yul\":2514:2682   */\n    tag_40:\n        /* \"#utility.yul\":2597:2608   */\n      0x00\n        /* \"#utility.yul\":2631:2637   */\n      dup3\n        /* \"#utility.yul\":2626:2629   */\n      dup3\n        /* \"#utility.yul\":2619:2638   */\n      mstore\n        /* \"#utility.yul\":2671:2675   */\n      0x20\n        /* \"#utility.yul\":2666:2669   */\n      dup3\n        /* \"#utility.yul\":2662:2676   */\n      add\n        /* \"#utility.yul\":2647:2676   */\n      swap1\n      pop\n        /* \"#utility.yul\":2514:2682   */\n      swap3\n      swap2\n      pop\n      pop\n      jump\t// out\n        /* \"#utility.yul\":2688:2790   */\n    tag_41:\n        /* \"#utility.yul\":2729:2735   */\n      0x00\n        /* \"#utility.yul\":2780:2782   */\n      0x1f\n        /* \"#utility.yul\":2776:2783   */\n      not\n        /* \"#utility.yul\":2771:2773   */\n      0x1f\n        /* \"#utility.yul\":2764:2769   */\n      dup4\n        /* \"#utility.yul\":2760:2774   */\n      add\n        /* \"#utility.yul\":2756:2784   */\n      and\n        /* \"#utility.yul\":2746:2784   */\n      swap1\n      pop\n        /* \"#utility.yul\":2688:2790   */\n      swap2\n      swap1\n      pop\n      jump\t// out\n        /* \"#utility.yul\":2796:3169   */\n    tag_42:\n        /* \"#utility.yul\":2882:2885   */\n      0x00\n        /* \"#utility.yul\":2910:2948   */\n      tag_82\n        /* \"#utility.yul\":2942:2947   */\n      dup3\n        /* \"#utility.yul\":2910:2948   */\n      tag_34\n      jump\t// in\n    tag_82:\n        /* \"#utility.yul\":2964:3034   */\n      tag_83\n        /* \"#utility.yul\":3027:3033   */\n      dup2\n        /* \"#utility.yul\":3022:3025   */\n      dup6\n        /* \"#utility.yul\":2964:3034   */\n      tag_40\n      jump\t// in\n    tag_83:\n        /* \"#utility.yul\":2957:3034   */\n      swap4\n      pop\n        /* \"#utility.yul\":3043:3108   */\n      tag_84\n        /* \"#utility.yul\":3101:3107   */\n      dup2\n        /* \"#utility.yul\":3096:3099   */\n      dup6\n        /* \"#utility.yul\":3089:3093   */\n      0x20\n        /* \"#utility.yul\":3082:3087   */\n      dup7\n        /* \"#utility.yul\":3078:3094   */\n      add\n        /* \"#utility.yul\":3043:3108   */\n      tag_36\n      jump\t// in\n    tag_84:\n        /* \"#utility.yul\":3133:3162   */\n      tag_85\n        /* \"#utility.yul\":3155:3161   */\n      dup2\n        /* \"#utility.yul\":3133:3162   */\n      tag_41\n      jump\t// in\n    tag_85:\n        /* \"#utility.yul\":3128:3131   */\n      dup5\n        /* \"#utility.yul\":3124:3163   */\n      add\n        /* \"#utility.yul\":3117:3163   */\n      swap2\n      pop\n        /* \"#utility.yul\":2886:3169   */\n      pop\n        /* \"#utility.yul\":2796:3169   */\n      swap3\n      swap2\n      pop\n      pop\n      jump\t// out\n        /* \"#utility.yul\":3175:3582   */\n    tag_18:\n        /* \"#utility.yul\":3308:3312   */\n      0x00\n        /* \"#utility.yul\":3346:3348   */\n      0x40\n        /* \"#utility.yul\":3335:3344   */\n      dup3\n        /* \"#utility.yul\":3331:3349   */\n      add\n        /* \"#utility.yul\":3323:3349   */\n      swap1\n      pop\n        /* \"#utility.yul\":3359:3424   */\n      tag_87\n        /* \"#utility.yul\":3421:3422   */\n      0x00\n        /* \"#utility.yul\":3410:3419   */\n      dup4\n        /* \"#utility.yul\":3406:3423   */\n      add\n        /* \"#utility.yul\":3397:3403   */\n      dup6\n        /* \"#utility.yul\":3359:3424   */\n      tag_39\n      jump\t// in\n    tag_87:\n        /* \"#utility.yul\":3471:3480   */\n      dup2\n        /* \"#utility.yul\":3465:3469   */\n      dup2\n        /* \"#utility.yul\":3461:3481   */\n      sub\n        /* \"#utility.yul\":3456:3458   */\n      0x20\n        /* \"#utility.yul\":3445:3454   */\n      dup4\n        /* \"#utility.yul\":3441:3459   */\n      add\n        /* \"#utility.yul\":3434:3482   */\n      mstore\n        /* \"#utility.yul\":3499:3575   */\n      tag_88\n        /* \"#utility.yul\":3570:3574   */\n      dup2\n        /* \"#utility.yul\":3561:3567   */\n      dup5\n        /* \"#utility.yul\":3499:3575   */\n      tag_42\n      jump\t// in\n    tag_88:\n        /* \"#utility.yul\":3491:3575   */\n      swap1\n      pop\n        /* \"#utility.yul\":3175:3582   */\n      swap4\n      swap3\n      pop\n      pop\n      pop\n      jump\t// out\n        /* \"#utility.yul\":3588:3757   */\n    tag_43:\n        /* \"#utility.yul\":3672:3683   */\n      0x00\n        /* \"#utility.yul\":3706:3712   */\n      dup3\n        /* \"#utility.yul\":3701:3704   */\n      dup3\n        /* \"#utility.yul\":3694:3713   */\n      mstore\n        /* \"#utility.yul\":3746:3750   */\n      0x20\n        /* \"#utility.yul\":3741:3744   */\n      dup3\n        /* \"#utility.yul\":3737:3751   */\n      add\n        /* \"#utility.yul\":3722:3751   */\n      swap1\n      pop\n        /* \"#utility.yul\":3588:3757   */\n      swap3\n      swap2\n      pop\n      pop\n      jump\t// out\n        /* \"#utility.yul\":3763:3922   */\n    tag_44:\n        /* \"#utility.yul\":3903:3914   */\n      0x43616c6c204d696b650000000000000000000000000000000000000000000000\n        /* \"#utility.yul\":3899:3900   */\n      0x00\n        /* \"#utility.yul\":3891:3897   */\n      dup3\n        /* \"#utility.yul\":3887:3901   */\n      add\n        /* \"#utility.yul\":3880:3915   */\n      mstore\n        /* \"#utility.yul\":3763:3922   */\n      pop\n      jump\t// out\n        /* \"#utility.yul\":3928:4293   */\n    tag_45:\n        /* \"#utility.yul\":4070:4073   */\n      0x00\n        /* \"#utility.yul\":4091:4157   */\n      tag_92\n        /* \"#utility.yul\":4155:4156   */\n      0x09\n        /* \"#utility.yul\":4150:4153   */\n      dup4\n        /* \"#utility.yul\":4091:4157   */\n      tag_43\n      jump\t// in\n    tag_92:\n        /* \"#utility.yul\":4084:4157   */\n      swap2\n      pop\n        /* \"#utility.yul\":4166:4259   */\n      tag_93\n        /* \"#utility.yul\":4255:4258   */\n      dup3\n        /* \"#utility.yul\":4166:4259   */\n      tag_44\n      jump\t// in\n    tag_93:\n        /* \"#utility.yul\":4284:4286   */\n      0x20\n        /* \"#utility.yul\":4279:4282   */\n      dup3\n        /* \"#utility.yul\":4275:4287   */\n      add\n        /* \"#utility.yul\":4268:4287   */\n      swap1\n      pop\n        /* \"#utility.yul\":3928:4293   */\n      swap2\n      swap1\n      pop\n      jump\t// out\n        /* \"#utility.yul\":4299:4386   */\n    tag_46:\n        /* \"#utility.yul\":4346:4353   */\n      0x00\n        /* \"#utility.yul\":4375:4380   */\n      dup2\n        /* \"#utility.yul\":4364:4380   */\n      swap1\n      pop\n        /* \"#utility.yul\":4299:4386   */\n      swap2\n      swap1\n      pop\n      jump\t// out\n        /* \"#utility.yul\":4392:4481   */\n    tag_47:\n        /* \"#utility.yul\":4428:4435   */\n      0x00\n        /* \"#utility.yul\":4468:4474   */\n      0xffff\n        /* \"#utility.yul\":4461:4466   */\n      dup3\n        /* \"#utility.yul\":4457:4475   */\n      and\n        /* \"#utility.yul\":4446:4475   */\n      swap1\n      pop\n        /* \"#utility.yul\":4392:4481   */\n      swap2\n      swap1\n      pop\n      jump\t// out\n        /* \"#utility.yul\":4487:4547   */\n    tag_48:\n        /* \"#utility.yul\":4515:4518   */\n      0x00\n        /* \"#utility.yul\":4536:4541   */\n      dup2\n        /* \"#utility.yul\":4529:4541   */\n      swap1\n      pop\n        /* \"#utility.yul\":4487:4547   */\n      swap2\n      swap1\n      pop\n      jump\t// out\n        /* \"#utility.yul\":4553:4713   */\n    tag_49:\n        /* \"#utility.yul\":4612:4621   */\n      0x00\n        /* \"#utility.yul\":4645:4707   */\n      tag_98\n        /* \"#utility.yul\":4662:4706   */\n      tag_99\n        /* \"#utility.yul\":4671:4705   */\n      tag_100\n        /* \"#utility.yul\":4699:4704   */\n      dup5\n        /* \"#utility.yul\":4671:4705   */\n      tag_46\n      jump\t// in\n    tag_100:\n        /* \"#utility.yul\":4662:4706   */\n      tag_48\n      jump\t// in\n    tag_99:\n        /* \"#utility.yul\":4645:4707   */\n      tag_47\n      jump\t// in\n    tag_98:\n        /* \"#utility.yul\":4632:4707   */\n      swap1\n      pop\n        /* \"#utility.yul\":4553:4713   */\n      swap2\n      swap1\n      pop\n      jump\t// out\n        /* \"#utility.yul\":4719:4868   */\n    tag_50:\n        /* \"#utility.yul\":4815:4861   */\n      tag_102\n        /* \"#utility.yul\":4855:4860   */\n      dup2\n        /* \"#utility.yul\":4815:4861   */\n      tag_49\n      jump\t// in\n    tag_102:\n        /* \"#utility.yul\":4810:4813   */\n      dup3\n        /* \"#utility.yul\":4803:4862   */\n      mstore\n        /* \"#utility.yul\":4719:4868   */\n      pop\n      pop\n      jump\t// out\n        /* \"#utility.yul\":4874:5421   */\n    tag_21:\n        /* \"#utility.yul\":5077:5081   */\n      0x00\n        /* \"#utility.yul\":5115:5117   */\n      0x40\n        /* \"#utility.yul\":5104:5113   */\n      dup3\n        /* \"#utility.yul\":5100:5118   */\n      add\n        /* \"#utility.yul\":5092:5118   */\n      swap1\n      pop\n        /* \"#utility.yul\":5164:5173   */\n      dup2\n        /* \"#utility.yul\":5158:5162   */\n      dup2\n        /* \"#utility.yul\":5154:5174   */\n      sub\n        /* \"#utility.yul\":5150:5151   */\n      0x00\n        /* \"#utility.yul\":5139:5148   */\n      dup4\n        /* \"#utility.yul\":5135:5152   */\n      add\n        /* \"#utility.yul\":5128:5175   */\n      mstore\n        /* \"#utility.yul\":5192:5323   */\n      tag_104\n        /* \"#utility.yul\":5318:5322   */\n      dup2\n        /* \"#utility.yul\":5192:5323   */\n      tag_45\n      jump\t// in\n    tag_104:\n        /* \"#utility.yul\":5184:5323   */\n      swap1\n      pop\n        /* \"#utility.yul\":5333:5414   */\n      tag_105\n        /* \"#utility.yul\":5410:5412   */\n      0x20\n        /* \"#utility.yul\":5399:5408   */\n      dup4\n        /* \"#utility.yul\":5395:5413   */\n      add\n        /* \"#utility.yul\":5386:5392   */\n      dup5\n        /* \"#utility.yul\":5333:5414   */\n      tag_50\n      jump\t// in\n    tag_105:\n        /* \"#utility.yul\":4874:5421   */\n      swap3\n      swap2\n      pop\n      pop\n      jump\t// out\n\n    auxdata: 0xa2646970667358221220d3a18c029ece5da91ada8cbf02dc06be993155c6493b3f580b78d57196049cf664736f6c634300081a0033\n}\n",
				"bytecode": {
					"linkReferences": {},
					"object": "6080604052348015600e575f80fd5b5061056a8061001c5f395ff3fe608060405260043610610028575f3560e01c8063683a47c11461002c578063edcbe76c14610048575b5f80fd5b6100466004803603810190610041919061032c565b610064565b005b610062600480360381019061005d919061032c565b610190565b005b5f808273ffffffffffffffffffffffffffffffffffffffff16346040516024016040516020818303038152906040527f1dcc85ae000000000000000000000000000000000000000000000000000000007bffffffffffffffffffffffffffffffffffffffffffffffffffffffff19166020820180517bffffffffffffffffffffffffffffffffffffffffffffffffffffffff838183161783525050505060405161010e91906103a9565b5f6040518083038185875af1925050503d805f8114610148576040519150601f19603f3d011682016040523d82523d5f602084013e61014d565b606091505b50915091507f13848c3e38f8886f3f5d2ad9dff80d8092c2bbb8efd5b887a99c2c6cfc09ac2a8282604051610183929190610431565b60405180910390a1505050565b5f808273ffffffffffffffffffffffffffffffffffffffff1634611388906101f46040516024016101c19190610508565b6040516020818303038152906040527ff09858be000000000000000000000000000000000000000000000000000000007bffffffffffffffffffffffffffffffffffffffffffffffffffffffff19166020820180517bffffffffffffffffffffffffffffffffffffffffffffffffffffffff838183161783525050505060405161024b91906103a9565b5f60405180830381858888f193505050503d805f8114610286576040519150601f19603f3d011682016040523d82523d5f602084013e61028b565b606091505b50915091507f13848c3e38f8886f3f5d2ad9dff80d8092c2bbb8efd5b887a99c2c6cfc09ac2a82826040516102c1929190610431565b60405180910390a1505050565b5f80fd5b5f73ffffffffffffffffffffffffffffffffffffffff82169050919050565b5f6102fb826102d2565b9050919050565b61030b816102f1565b8114610315575f80fd5b50565b5f8135905061032681610302565b92915050565b5f60208284031215610341576103406102ce565b5b5f61034e84828501610318565b91505092915050565b5f81519050919050565b5f81905092915050565b8281835e5f83830152505050565b5f61038382610357565b61038d8185610361565b935061039d81856020860161036b565b80840191505092915050565b5f6103b48284610379565b915081905092915050565b5f8115159050919050565b6103d3816103bf565b82525050565b5f82825260208201905092915050565b5f601f19601f8301169050919050565b5f61040382610357565b61040d81856103d9565b935061041d81856020860161036b565b610426816103e9565b840191505092915050565b5f6040820190506104445f8301856103ca565b818103602083015261045681846103f9565b90509392505050565b5f82825260208201905092915050565b7f43616c6c204d696b6500000000000000000000000000000000000000000000005f82015250565b5f6104a360098361045f565b91506104ae8261046f565b602082019050919050565b5f819050919050565b5f61ffff82169050919050565b5f819050919050565b5f6104f26104ed6104e8846104b9565b6104cf565b6104c2565b9050919050565b610502816104d8565b82525050565b5f6040820190508181035f83015261051f81610497565b905061052e60208301846104f9565b9291505056fea2646970667358221220d3a18c029ece5da91ada8cbf02dc06be993155c6493b3f580b78d57196049cf664736f6c634300081a0033",
					"opcodes": "PUSH1 0x80 PUSH1 0x40 MSTORE CALLVALUE DUP1 ISZERO PUSH1 0xE JUMPI PUSH0 DUP1 REVERT JUMPDEST POP PUSH2 0x56A DUP1 PUSH2 0x1C PUSH0 CODECOPY PUSH0 RETURN INVALID PUSH1 0x80 PUSH1 0x40 MSTORE PUSH1 0x4 CALLDATASIZE LT PUSH2 0x28 JUMPI PUSH0 CALLDATALOAD PUSH1 0xE0 SHR DUP1 PUSH4 0x683A47C1 EQ PUSH2 0x2C JUMPI DUP1 PUSH4 0xEDCBE76C EQ PUSH2 0x48 JUMPI JUMPDEST PUSH0 DUP1 REVERT JUMPDEST PUSH2 0x46 PUSH1 0x4 DUP1 CALLDATASIZE SUB DUP2 ADD SWAP1 PUSH2 0x41 SWAP2 SWAP1 PUSH2 0x32C JUMP JUMPDEST PUSH2 0x64 JUMP JUMPDEST STOP JUMPDEST PUSH2 0x62 PUSH1 0x4 DUP1 CALLDATASIZE SUB DUP2 ADD SWAP1 PUSH2 0x5D SWAP2 SWAP1 PUSH2 0x32C JUMP JUMPDEST PUSH2 0x190 JUMP JUMPDEST STOP JUMPDEST PUSH0 DUP1 DUP3 PUSH20 0xFFFFFFFFFFFFFFFFFFFFFFFFFFFFFFFFFFFFFFFF AND CALLVALUE PUSH1 0x40 MLOAD PUSH1 0x24 ADD PUSH1 0x40 MLOAD PUSH1 0x20 DUP2 DUP4 SUB SUB DUP2 MSTORE SWAP1 PUSH1 0x40 MSTORE PUSH32 0x1DCC85AE00000000000000000000000000000000000000000000000000000000 PUSH28 0xFFFFFFFFFFFFFFFFFFFFFFFFFFFFFFFFFFFFFFFFFFFFFFFFFFFFFFFF NOT AND PUSH1 0x20 DUP3 ADD DUP1 MLOAD PUSH28 0xFFFFFFFFFFFFFFFFFFFFFFFFFFFFFFFFFFFFFFFFFFFFFFFFFFFFFFFF DUP4 DUP2 DUP4 AND OR DUP4 MSTORE POP POP POP POP PUSH1 0x40 MLOAD PUSH2 0x10E SWAP2 SWAP1 PUSH2 0x3A9 JUMP JUMPDEST PUSH0 PUSH1 0x40 MLOAD DUP1 DUP4 SUB DUP2 DUP6 DUP8 GAS CALL SWAP3 POP POP POP RETURNDATASIZE DUP1 PUSH0 DUP2 EQ PUSH2 0x148 JUMPI PUSH1 0x40 MLOAD SWAP2 POP PUSH1 0x1F NOT PUSH1 0x3F RETURNDATASIZE ADD AND DUP3 ADD PUSH1 0x40 MSTORE RETURNDATASIZE DUP3 MSTORE RETURNDATASIZE PUSH0 PUSH1 0x20 DUP5 ADD RETURNDATACOPY PUSH2 0x14D JUMP JUMPDEST PUSH1 0x60 SWAP2 POP JUMPDEST POP SWAP2 POP SWAP2 POP PUSH32 0x13848C3E38F8886F3F5D2AD9DFF80D8092C2BBB8EFD5B887A99C2C6CFC09AC2A DUP3 DUP3 PUSH1 0x40 MLOAD PUSH2 0x183 SWAP3 SWAP2 SWAP1 PUSH2 0x431 JUMP JUMPDEST PUSH1 0x40 MLOAD DUP1 SWAP2 SUB SWAP1 LOG1 POP POP POP JUMP JUMPDEST PUSH0 DUP1 DUP3 PUSH20 0xFFFFFFFFFFFFFFFFFFFFFFFFFFFFFFFFFFFFFFFF AND CALLVALUE PUSH2 0x1388 SWAP1 PUSH2 0x1F4 PUSH1 0x40 MLOAD PUSH1 0x24 ADD PUSH2 0x1C1 SWAP2 SWAP1 PUSH2 0x508 JUMP JUMPDEST PUSH1 0x40 MLOAD PUSH1 0x20 DUP2 DUP4 SUB SUB DUP2 MSTORE SWAP1 PUSH1 0x40 MSTORE PUSH32 0xF09858BE00000000000000000000000000000000000000000000000000000000 PUSH28 0xFFFFFFFFFFFFFFFFFFFFFFFFFFFFFFFFFFFFFFFFFFFFFFFFFFFFFFFF NOT AND PUSH1 0x20 DUP3 ADD DUP1 MLOAD PUSH28 0xFFFFFFFFFFFFFFFFFFFFFFFFFFFFFFFFFFFFFFFFFFFFFFFFFFFFFFFF DUP4 DUP2 DUP4 AND OR DUP4 MSTORE POP POP POP POP PUSH1 0x40 MLOAD PUSH2 0x24B SWAP2 SWAP1 PUSH2 0x3A9 JUMP JUMPDEST PUSH0 PUSH1 0x40 MLOAD DUP1 DUP4 SUB DUP2 DUP6 DUP9 DUP9 CALL SWAP4 POP POP POP POP RETURNDATASIZE DUP1 PUSH0 DUP2 EQ PUSH2 0x286 JUMPI PUSH1 0x40 MLOAD SWAP2 POP PUSH1 0x1F NOT PUSH1 0x3F RETURNDATASIZE ADD AND DUP3 ADD PUSH1 0x40 MSTORE RETURNDATASIZE DUP3 MSTORE RETURNDATASIZE PUSH0 PUSH1 0x20 DUP5 ADD RETURNDATACOPY PUSH2 0x28B JUMP JUMPDEST PUSH1 0x60 SWAP2 POP JUMPDEST POP SWAP2 POP SWAP2 POP PUSH32 0x13848C3E38F8886F3F5D2AD9DFF80D8092C2BBB8EFD5B887A99C2C6CFC09AC2A DUP3 DUP3 PUSH1 0x40 MLOAD PUSH2 0x2C1 SWAP3 SWAP2 SWAP1 PUSH2 0x431 JUMP JUMPDEST PUSH1 0x40 MLOAD DUP1 SWAP2 SUB SWAP1 LOG1 POP POP POP JUMP JUMPDEST PUSH0 DUP1 REVERT JUMPDEST PUSH0 PUSH20 0xFFFFFFFFFFFFFFFFFFFFFFFFFFFFFFFFFFFFFFFF DUP3 AND SWAP1 POP SWAP2 SWAP1 POP JUMP JUMPDEST PUSH0 PUSH2 0x2FB DUP3 PUSH2 0x2D2 JUMP JUMPDEST SWAP1 POP SWAP2 SWAP1 POP JUMP JUMPDEST PUSH2 0x30B DUP2 PUSH2 0x2F1 JUMP JUMPDEST DUP2 EQ PUSH2 0x315 JUMPI PUSH0 DUP1 REVERT JUMPDEST POP JUMP JUMPDEST PUSH0 DUP2 CALLDATALOAD SWAP1 POP PUSH2 0x326 DUP2 PUSH2 0x302 JUMP JUMPDEST SWAP3 SWAP2 POP POP JUMP JUMPDEST PUSH0 PUSH1 0x20 DUP3 DUP5 SUB SLT ISZERO PUSH2 0x341 JUMPI PUSH2 0x340 PUSH2 0x2CE JUMP JUMPDEST JUMPDEST PUSH0 PUSH2 0x34E DUP5 DUP3 DUP6 ADD PUSH2 0x318 JUMP JUMPDEST SWAP2 POP POP SWAP3 SWAP2 POP POP JUMP JUMPDEST PUSH0 DUP2 MLOAD SWAP1 POP SWAP2 SWAP1 POP JUMP JUMPDEST PUSH0 DUP2 SWAP1 POP SWAP3 SWAP2 POP POP JUMP JUMPDEST DUP3 DUP2 DUP4 MCOPY PUSH0 DUP4 DUP4 ADD MSTORE POP POP POP JUMP JUMPDEST PUSH0 PUSH2 0x383 DUP3 PUSH2 0x357 JUMP JUMPDEST PUSH2 0x38D DUP2 DUP6 PUSH2 0x361 JUMP JUMPDEST SWAP4 POP PUSH2 0x39D DUP2 DUP6 PUSH1 0x20 DUP7 ADD PUSH2 0x36B JUMP JUMPDEST DUP1 DUP5 ADD SWAP2 POP POP SWAP3 SWAP2 POP POP JUMP JUMPDEST PUSH0 PUSH2 0x3B4 DUP3 DUP5 PUSH2 0x379 JUMP JUMPDEST SWAP2 POP DUP2 SWAP1 POP SWAP3 SWAP2 POP POP JUMP JUMPDEST PUSH0 DUP2 ISZERO ISZERO SWAP1 POP SWAP2 SWAP1 POP JUMP JUMPDEST PUSH2 0x3D3 DUP2 PUSH2 0x3BF JUMP JUMPDEST DUP3 MSTORE POP POP JUMP JUMPDEST PUSH0 DUP3 DUP3 MSTORE PUSH1 0x20 DUP3 ADD SWAP1 POP SWAP3 SWAP2 POP POP JUMP JUMPDEST PUSH0 PUSH1 0x1F NOT PUSH1 0x1F DUP4 ADD AND SWAP1 POP SWAP2 SWAP1 POP JUMP JUMPDEST PUSH0 PUSH2 0x403 DUP3 PUSH2 0x357 JUMP JUMPDEST PUSH2 0x40D DUP2 DUP6 PUSH2 0x3D9 JUMP JUMPDEST SWAP4 POP PUSH2 0x41D DUP2 DUP6 PUSH1 0x20 DUP7 ADD PUSH2 0x36B JUMP JUMPDEST PUSH2 0x426 DUP2 PUSH2 0x3E9 JUMP JUMPDEST DUP5 ADD SWAP2 POP POP SWAP3 SWAP2 POP POP JUMP JUMPDEST PUSH0 PUSH1 0x40 DUP3 ADD SWAP1 POP PUSH2 0x444 PUSH0 DUP4 ADD DUP6 PUSH2 0x3CA JUMP JUMPDEST DUP2 DUP2 SUB PUSH1 0x20 DUP4 ADD MSTORE PUSH2 0x456 DUP2 DUP5 PUSH2 0x3F9 JUMP JUMPDEST SWAP1 POP SWAP4 SWAP3 POP POP POP JUMP JUMPDEST PUSH0 DUP3 DUP3 MSTORE PUSH1 0x20 DUP3 ADD SWAP1 POP SWAP3 SWAP2 POP POP JUMP JUMPDEST PUSH32 0x43616C6C204D696B650000000000000000000000000000000000000000000000 PUSH0 DUP3 ADD MSTORE POP JUMP JUMPDEST PUSH0 PUSH2 0x4A3 PUSH1 0x9 DUP4 PUSH2 0x45F JUMP JUMPDEST SWAP2 POP PUSH2 0x4AE DUP3 PUSH2 0x46F JUMP JUMPDEST PUSH1 0x20 DUP3 ADD SWAP1 POP SWAP2 SWAP1 POP JUMP JUMPDEST PUSH0 DUP2 SWAP1 POP SWAP2 SWAP1 POP JUMP JUMPDEST PUSH0 PUSH2 0xFFFF DUP3 AND SWAP1 POP SWAP2 SWAP1 POP JUMP JUMPDEST PUSH0 DUP2 SWAP1 POP SWAP2 SWAP1 POP JUMP JUMPDEST PUSH0 PUSH2 0x4F2 PUSH2 0x4ED PUSH2 0x4E8 DUP5 PUSH2 0x4B9 JUMP JUMPDEST PUSH2 0x4CF JUMP JUMPDEST PUSH2 0x4C2 JUMP JUMPDEST SWAP1 POP SWAP2 SWAP1 POP JUMP JUMPDEST PUSH2 0x502 DUP2 PUSH2 0x4D8 JUMP JUMPDEST DUP3 MSTORE POP POP JUMP JUMPDEST PUSH0 PUSH1 0x40 DUP3 ADD SWAP1 POP DUP2 DUP2 SUB PUSH0 DUP4 ADD MSTORE PUSH2 0x51F DUP2 PUSH2 0x497 JUMP JUMPDEST SWAP1 POP PUSH2 0x52E PUSH1 0x20 DUP4 ADD DUP5 PUSH2 0x4F9 JUMP JUMPDEST SWAP3 SWAP2 POP POP JUMP INVALID LOG2 PUSH5 0x6970667358 0x22 SLT KECCAK256 0xD3 LOG1 DUP13 MUL SWAP15 0xCE TSTORE 0xA9 BYTE 0xDA DUP13 0xBF MUL 0xDC MOD 0xBE SWAP10 BALANCE SSTORE 0xC6 BLOBHASH EXTCODESIZE EXTCODEHASH PC SIGNEXTEND PUSH25 0xD57196049CF664736F6C634300081A00330000000000000000 "
				},
				"gasEstimates": {
					"creation": {
						"codeDepositCost": "277200",
						"executionCost": "316",
						"totalCost": "277516"
					},
					"external": {
						"callFoo(address)": "infinite",
						"callGhost(address)": "infinite"
					}
				},
				"methodIdentifiers": {
					"callFoo(address)": "edcbe76c",
					"callGhost(address)": "683a47c1"
				}
			},
			"storageLayout": {
				"storage": [],
				"types": null
			},
			"userdoc": {
				"kind": "user",
				"methods": {},
				"version": 1
			}
		}
	}
}