{
	"contracts/Juliet.sol": {
		"Reciever": {
			"abi": [
				{
					"anonymous": false,
					"inputs": [
						{
							"indexed": false,
							"internalType": "address",
							"name": "caller",
							"type": "address"
						},
						{
							"indexed": false,
							"internalType": "uint256",
							"name": "amount",
							"type": "uint256"
						},
						{
							"indexed": false,
							"internalType": "string",
							"name": "message",
							"type": "string"
						}
					],
					"name": "Received",
					"type": "event"
				},
				{
					"stateMutability": "payable",
					"type": "fallback"
				},
				{
					"inputs": [
						{
							"internalType": "string",
							"name": "_message",
							"type": "string"
						},
						{
							"internalType": "uint256",
							"name": "_x",
							"type": "uint256"
						}
					],
					"name": "foo",
					"outputs": [
						{
							"internalType": "uint256",
							"name": "",
							"type": "uint256"
						}
					],
					"stateMutability": "payable",
					"type": "function"
				}
			],
			"devdoc": {
				"kind": "dev",
				"methods": {},
				"version": 1
			},
			"evm": {
				"assembly": "    /* \"contracts/Juliet.sol\":57:440  contract Reciever {... */\n  mstore(0x40, 0x80)\n  callvalue\n  dup1\n  iszero\n  tag_1\n  jumpi\n  0x00\n  dup1\n  revert\ntag_1:\n  pop\n  dataSize(sub_0)\n  dup1\n  dataOffset(sub_0)\n  0x00\n  codecopy\n  0x00\n  return\nstop\n\nsub_0: assembly {\n        /* \"contracts/Juliet.sol\":57:440  contract Reciever {... */\n      mstore(0x40, 0x80)\n      jumpi(tag_1, lt(calldatasize, 0x04))\n      shr(0xe0, calldataload(0x00))\n      dup1\n      0x24ccab8f\n      eq\n      tag_3\n      jumpi\n      jump(tag_2)\n    tag_1:\n    tag_2:\n        /* \"contracts/Juliet.sol\":193:247  Received(msg.sender, msg.value, \"Fallback was called\") */\n      0x59e04c3f0d44b7caf6e8ef854b61d9a51cf1960d7a88ff6356cc5e946b4b5832\n        /* \"contracts/Juliet.sol\":202:212  msg.sender */\n      caller\n        /* \"contracts/Juliet.sol\":214:223  msg.value */\n      callvalue\n        /* \"contracts/Juliet.sol\":193:247  Received(msg.sender, msg.value, \"Fallback was called\") */\n      mload(0x40)\n      tag_6\n      swap3\n      swap2\n      swap1\n      tag_7\n      jump\t// in\n    tag_6:\n      mload(0x40)\n      dup1\n      swap2\n      sub\n      swap1\n      log1\n        /* \"contracts/Juliet.sol\":57:440  contract Reciever {... */\n      stop\n        /* \"contracts/Juliet.sol\":298:438  function foo(string memory _message, uint256 _x)... */\n    tag_3:\n      tag_8\n      0x04\n      dup1\n      calldatasize\n      sub\n      dup2\n      add\n      swap1\n      tag_9\n      swap2\n      swap1\n      tag_10\n      jump\t// in\n    tag_9:\n      tag_11\n      jump\t// in\n    tag_8:\n      mload(0x40)\n      tag_12\n      swap2\n      swap1\n      tag_13\n      jump\t// in\n    tag_12:\n      mload(0x40)\n      dup1\n      swap2\n      sub\n      swap1\n      return\n    tag_11:\n        /* \"contracts/Juliet.sol\":395:402  uint256 */\n      0x00\n        /* \"contracts/Juliet.sol\":430:431  1 */\n      0x01\n        /* \"contracts/Juliet.sol\":425:427  _x */\n      dup3\n        /* \"contracts/Juliet.sol\":425:431  _x + 1 */\n      tag_15\n      swap2\n      swap1\n      tag_16\n      jump\t// in\n    tag_15:\n        /* \"contracts/Juliet.sol\":418:431  return _x + 1 */\n      swap1\n      pop\n        /* \"contracts/Juliet.sol\":298:438  function foo(string memory _message, uint256 _x)... */\n      swap3\n      swap2\n      pop\n      pop\n      jump\t// out\n        /* \"#utility.yul\":7:133   */\n    tag_17:\n        /* \"#utility.yul\":44:51   */\n      0x00\n        /* \"#utility.yul\":84:126   */\n      0xffffffffffffffffffffffffffffffffffffffff\n        /* \"#utility.yul\":77:82   */\n      dup3\n        /* \"#utility.yul\":73:127   */\n      and\n        /* \"#utility.yul\":62:127   */\n      swap1\n      pop\n        /* \"#utility.yul\":7:133   */\n      swap2\n      swap1\n      pop\n      jump\t// out\n        /* \"#utility.yul\":139:235   */\n    tag_18:\n        /* \"#utility.yul\":176:183   */\n      0x00\n        /* \"#utility.yul\":205:229   */\n      tag_44\n        /* \"#utility.yul\":223:228   */\n      dup3\n        /* \"#utility.yul\":205:229   */\n      tag_17\n      jump\t// in\n    tag_44:\n        /* \"#utility.yul\":194:229   */\n      swap1\n      pop\n        /* \"#utility.yul\":139:235   */\n      swap2\n      swap1\n      pop\n      jump\t// out\n        /* \"#utility.yul\":241:359   */\n    tag_19:\n        /* \"#utility.yul\":328:352   */\n      tag_46\n        /* \"#utility.yul\":346:351   */\n      dup2\n        /* \"#utility.yul\":328:352   */\n      tag_18\n      jump\t// in\n    tag_46:\n        /* \"#utility.yul\":323:326   */\n      dup3\n        /* \"#utility.yul\":316:353   */\n      mstore\n        /* \"#utility.yul\":241:359   */\n      pop\n      pop\n      jump\t// out\n        /* \"#utility.yul\":365:442   */\n    tag_20:\n        /* \"#utility.yul\":402:409   */\n      0x00\n        /* \"#utility.yul\":431:436   */\n      dup2\n        /* \"#utility.yul\":420:436   */\n      swap1\n      pop\n        /* \"#utility.yul\":365:442   */\n      swap2\n      swap1\n      pop\n      jump\t// out\n        /* \"#utility.yul\":448:566   */\n    tag_21:\n        /* \"#utility.yul\":535:559   */\n      tag_49\n        /* \"#utility.yul\":553:558   */\n      dup2\n        /* \"#utility.yul\":535:559   */\n      tag_20\n      jump\t// in\n    tag_49:\n        /* \"#utility.yul\":530:533   */\n      dup3\n        /* \"#utility.yul\":523:560   */\n      mstore\n        /* \"#utility.yul\":448:566   */\n      pop\n      pop\n      jump\t// out\n        /* \"#utility.yul\":572:741   */\n    tag_22:\n        /* \"#utility.yul\":656:667   */\n      0x00\n        /* \"#utility.yul\":690:696   */\n      dup3\n        /* \"#utility.yul\":685:688   */\n      dup3\n        /* \"#utility.yul\":678:697   */\n      mstore\n        /* \"#utility.yul\":730:734   */\n      0x20\n        /* \"#utility.yul\":725:728   */\n      dup3\n        /* \"#utility.yul\":721:735   */\n      add\n        /* \"#utility.yul\":706:735   */\n      swap1\n      pop\n        /* \"#utility.yul\":572:741   */\n      swap3\n      swap2\n      pop\n      pop\n      jump\t// out\n        /* \"#utility.yul\":747:916   */\n    tag_23:\n        /* \"#utility.yul\":887:908   */\n      0x46616c6c6261636b207761732063616c6c656400000000000000000000000000\n        /* \"#utility.yul\":883:884   */\n      0x00\n        /* \"#utility.yul\":875:881   */\n      dup3\n        /* \"#utility.yul\":871:885   */\n      add\n        /* \"#utility.yul\":864:909   */\n      mstore\n        /* \"#utility.yul\":747:916   */\n      pop\n      jump\t// out\n        /* \"#utility.yul\":922:1288   */\n    tag_24:\n        /* \"#utility.yul\":1064:1067   */\n      0x00\n        /* \"#utility.yul\":1085:1152   */\n      tag_53\n        /* \"#utility.yul\":1149:1151   */\n      0x13\n        /* \"#utility.yul\":1144:1147   */\n      dup4\n        /* \"#utility.yul\":1085:1152   */\n      tag_22\n      jump\t// in\n    tag_53:\n        /* \"#utility.yul\":1078:1152   */\n      swap2\n      pop\n        /* \"#utility.yul\":1161:1254   */\n      tag_54\n        /* \"#utility.yul\":1250:1253   */\n      dup3\n        /* \"#utility.yul\":1161:1254   */\n      tag_23\n      jump\t// in\n    tag_54:\n        /* \"#utility.yul\":1279:1281   */\n      0x20\n        /* \"#utility.yul\":1274:1277   */\n      dup3\n        /* \"#utility.yul\":1270:1282   */\n      add\n        /* \"#utility.yul\":1263:1282   */\n      swap1\n      pop\n        /* \"#utility.yul\":922:1288   */\n      swap2\n      swap1\n      pop\n      jump\t// out\n        /* \"#utility.yul\":1294:1933   */\n    tag_7:\n        /* \"#utility.yul\":1516:1520   */\n      0x00\n        /* \"#utility.yul\":1554:1556   */\n      0x60\n        /* \"#utility.yul\":1543:1552   */\n      dup3\n        /* \"#utility.yul\":1539:1557   */\n      add\n        /* \"#utility.yul\":1531:1557   */\n      swap1\n      pop\n        /* \"#utility.yul\":1567:1638   */\n      tag_56\n        /* \"#utility.yul\":1635:1636   */\n      0x00\n        /* \"#utility.yul\":1624:1633   */\n      dup4\n        /* \"#utility.yul\":1620:1637   */\n      add\n        /* \"#utility.yul\":1611:1617   */\n      dup6\n        /* \"#utility.yul\":1567:1638   */\n      tag_19\n      jump\t// in\n    tag_56:\n        /* \"#utility.yul\":1648:1720   */\n      tag_57\n        /* \"#utility.yul\":1716:1718   */\n      0x20\n        /* \"#utility.yul\":1705:1714   */\n      dup4\n        /* \"#utility.yul\":1701:1719   */\n      add\n        /* \"#utility.yul\":1692:1698   */\n      dup5\n        /* \"#utility.yul\":1648:1720   */\n      tag_21\n      jump\t// in\n    tag_57:\n        /* \"#utility.yul\":1767:1776   */\n      dup2\n        /* \"#utility.yul\":1761:1765   */\n      dup2\n        /* \"#utility.yul\":1757:1777   */\n      sub\n        /* \"#utility.yul\":1752:1754   */\n      0x40\n        /* \"#utility.yul\":1741:1750   */\n      dup4\n        /* \"#utility.yul\":1737:1755   */\n      add\n        /* \"#utility.yul\":1730:1778   */\n      mstore\n        /* \"#utility.yul\":1795:1926   */\n      tag_58\n        /* \"#utility.yul\":1921:1925   */\n      dup2\n        /* \"#utility.yul\":1795:1926   */\n      tag_24\n      jump\t// in\n    tag_58:\n        /* \"#utility.yul\":1787:1926   */\n      swap1\n      pop\n        /* \"#utility.yul\":1294:1933   */\n      swap4\n      swap3\n      pop\n      pop\n      pop\n      jump\t// out\n        /* \"#utility.yul\":1939:2014   */\n    tag_25:\n        /* \"#utility.yul\":1972:1978   */\n      0x00\n        /* \"#utility.yul\":2005:2007   */\n      0x40\n        /* \"#utility.yul\":1999:2008   */\n      mload\n        /* \"#utility.yul\":1989:2008   */\n      swap1\n      pop\n        /* \"#utility.yul\":1939:2014   */\n      swap1\n      jump\t// out\n        /* \"#utility.yul\":2020:2137   */\n    tag_26:\n        /* \"#utility.yul\":2129:2130   */\n      0x00\n        /* \"#utility.yul\":2126:2127   */\n      dup1\n        /* \"#utility.yul\":2119:2131   */\n      revert\n        /* \"#utility.yul\":2143:2260   */\n    tag_27:\n        /* \"#utility.yul\":2252:2253   */\n      0x00\n        /* \"#utility.yul\":2249:2250   */\n      dup1\n        /* \"#utility.yul\":2242:2254   */\n      revert\n        /* \"#utility.yul\":2266:2383   */\n    tag_28:\n        /* \"#utility.yul\":2375:2376   */\n      0x00\n        /* \"#utility.yul\":2372:2373   */\n      dup1\n        /* \"#utility.yul\":2365:2377   */\n      revert\n        /* \"#utility.yul\":2389:2506   */\n    tag_29:\n        /* \"#utility.yul\":2498:2499   */\n      0x00\n        /* \"#utility.yul\":2495:2496   */\n      dup1\n        /* \"#utility.yul\":2488:2500   */\n      revert\n        /* \"#utility.yul\":2512:2614   */\n    tag_30:\n        /* \"#utility.yul\":2553:2559   */\n      0x00\n        /* \"#utility.yul\":2604:2606   */\n      0x1f\n        /* \"#utility.yul\":2600:2607   */\n      not\n        /* \"#utility.yul\":2595:2597   */\n      0x1f\n        /* \"#utility.yul\":2588:2593   */\n      dup4\n        /* \"#utility.yul\":2584:2598   */\n      add\n        /* \"#utility.yul\":2580:2608   */\n      and\n        /* \"#utility.yul\":2570:2608   */\n      swap1\n      pop\n        /* \"#utility.yul\":2512:2614   */\n      swap2\n      swap1\n      pop\n      jump\t// out\n        /* \"#utility.yul\":2620:2800   */\n    tag_31:\n        /* \"#utility.yul\":2668:2745   */\n      0x4e487b7100000000000000000000000000000000000000000000000000000000\n        /* \"#utility.yul\":2665:2666   */\n      0x00\n        /* \"#utility.yul\":2658:2746   */\n      mstore\n        /* \"#utility.yul\":2765:2769   */\n      0x41\n        /* \"#utility.yul\":2762:2763   */\n      0x04\n        /* \"#utility.yul\":2755:2770   */\n      mstore\n        /* \"#utility.yul\":2789:2793   */\n      0x24\n        /* \"#utility.yul\":2786:2787   */\n      0x00\n        /* \"#utility.yul\":2779:2794   */\n      revert\n        /* \"#utility.yul\":2806:3087   */\n    tag_32:\n        /* \"#utility.yul\":2889:2916   */\n      tag_67\n        /* \"#utility.yul\":2911:2915   */\n      dup3\n        /* \"#utility.yul\":2889:2916   */\n      tag_30\n      jump\t// in\n    tag_67:\n        /* \"#utility.yul\":2881:2887   */\n      dup2\n        /* \"#utility.yul\":2877:2917   */\n      add\n        /* \"#utility.yul\":3019:3025   */\n      dup2\n        /* \"#utility.yul\":3007:3017   */\n      dup2\n        /* \"#utility.yul\":3004:3026   */\n      lt\n        /* \"#utility.yul\":2983:3001   */\n      0xffffffffffffffff\n        /* \"#utility.yul\":2971:2981   */\n      dup3\n        /* \"#utility.yul\":2968:3002   */\n      gt\n        /* \"#utility.yul\":2965:3027   */\n      or\n        /* \"#utility.yul\":2962:3050   */\n      iszero\n      tag_68\n      jumpi\n        /* \"#utility.yul\":3030:3048   */\n      tag_69\n      tag_31\n      jump\t// in\n    tag_69:\n        /* \"#utility.yul\":2962:3050   */\n    tag_68:\n        /* \"#utility.yul\":3070:3080   */\n      dup1\n        /* \"#utility.yul\":3066:3068   */\n      0x40\n        /* \"#utility.yul\":3059:3081   */\n      mstore\n        /* \"#utility.yul\":2849:3087   */\n      pop\n        /* \"#utility.yul\":2806:3087   */\n      pop\n      pop\n      jump\t// out\n        /* \"#utility.yul\":3093:3222   */\n    tag_33:\n        /* \"#utility.yul\":3127:3133   */\n      0x00\n        /* \"#utility.yul\":3154:3174   */\n      tag_71\n      tag_25\n      jump\t// in\n    tag_71:\n        /* \"#utility.yul\":3144:3174   */\n      swap1\n      pop\n        /* \"#utility.yul\":3183:3216   */\n      tag_72\n        /* \"#utility.yul\":3211:3215   */\n      dup3\n        /* \"#utility.yul\":3203:3209   */\n      dup3\n        /* \"#utility.yul\":3183:3216   */\n      tag_32\n      jump\t// in\n    tag_72:\n        /* \"#utility.yul\":3093:3222   */\n      swap2\n      swap1\n      pop\n      jump\t// out\n        /* \"#utility.yul\":3228:3536   */\n    tag_34:\n        /* \"#utility.yul\":3290:3294   */\n      0x00\n        /* \"#utility.yul\":3380:3398   */\n      0xffffffffffffffff\n        /* \"#utility.yul\":3372:3378   */\n      dup3\n        /* \"#utility.yul\":3369:3399   */\n      gt\n        /* \"#utility.yul\":3366:3422   */\n      iszero\n      tag_74\n      jumpi\n        /* \"#utility.yul\":3402:3420   */\n      tag_75\n      tag_31\n      jump\t// in\n    tag_75:\n        /* \"#utility.yul\":3366:3422   */\n    tag_74:\n        /* \"#utility.yul\":3440:3469   */\n      tag_76\n        /* \"#utility.yul\":3462:3468   */\n      dup3\n        /* \"#utility.yul\":3440:3469   */\n      tag_30\n      jump\t// in\n    tag_76:\n        /* \"#utility.yul\":3432:3469   */\n      swap1\n      pop\n        /* \"#utility.yul\":3524:3528   */\n      0x20\n        /* \"#utility.yul\":3518:3522   */\n      dup2\n        /* \"#utility.yul\":3514:3529   */\n      add\n        /* \"#utility.yul\":3506:3529   */\n      swap1\n      pop\n        /* \"#utility.yul\":3228:3536   */\n      swap2\n      swap1\n      pop\n      jump\t// out\n        /* \"#utility.yul\":3542:3690   */\n    tag_35:\n        /* \"#utility.yul\":3640:3646   */\n      dup3\n        /* \"#utility.yul\":3635:3638   */\n      dup2\n        /* \"#utility.yul\":3630:3633   */\n      dup4\n        /* \"#utility.yul\":3617:3647   */\n      calldatacopy\n        /* \"#utility.yul\":3681:3682   */\n      0x00\n        /* \"#utility.yul\":3672:3678   */\n      dup4\n        /* \"#utility.yul\":3667:3670   */\n      dup4\n        /* \"#utility.yul\":3663:3679   */\n      add\n        /* \"#utility.yul\":3656:3683   */\n      mstore\n        /* \"#utility.yul\":3542:3690   */\n      pop\n      pop\n      pop\n      jump\t// out\n        /* \"#utility.yul\":3696:4121   */\n    tag_36:\n        /* \"#utility.yul\":3774:3779   */\n      0x00\n        /* \"#utility.yul\":3799:3865   */\n      tag_79\n        /* \"#utility.yul\":3815:3864   */\n      tag_80\n        /* \"#utility.yul\":3857:3863   */\n      dup5\n        /* \"#utility.yul\":3815:3864   */\n      tag_34\n      jump\t// in\n    tag_80:\n        /* \"#utility.yul\":3799:3865   */\n      tag_33\n      jump\t// in\n    tag_79:\n        /* \"#utility.yul\":3790:3865   */\n      swap1\n      pop\n        /* \"#utility.yul\":3888:3894   */\n      dup3\n        /* \"#utility.yul\":3881:3886   */\n      dup2\n        /* \"#utility.yul\":3874:3895   */\n      mstore\n        /* \"#utility.yul\":3926:3930   */\n      0x20\n        /* \"#utility.yul\":3919:3924   */\n      dup2\n        /* \"#utility.yul\":3915:3931   */\n      add\n        /* \"#utility.yul\":3964:3967   */\n      dup5\n        /* \"#utility.yul\":3955:3961   */\n      dup5\n        /* \"#utility.yul\":3950:3953   */\n      dup5\n        /* \"#utility.yul\":3946:3962   */\n      add\n        /* \"#utility.yul\":3943:3968   */\n      gt\n        /* \"#utility.yul\":3940:4052   */\n      iszero\n      tag_81\n      jumpi\n        /* \"#utility.yul\":3971:4050   */\n      tag_82\n      tag_29\n      jump\t// in\n    tag_82:\n        /* \"#utility.yul\":3940:4052   */\n    tag_81:\n        /* \"#utility.yul\":4061:4115   */\n      tag_83\n        /* \"#utility.yul\":4108:4114   */\n      dup5\n        /* \"#utility.yul\":4103:4106   */\n      dup3\n        /* \"#utility.yul\":4098:4101   */\n      dup6\n        /* \"#utility.yul\":4061:4115   */\n      tag_35\n      jump\t// in\n    tag_83:\n        /* \"#utility.yul\":3780:4121   */\n      pop\n        /* \"#utility.yul\":3696:4121   */\n      swap4\n      swap3\n      pop\n      pop\n      pop\n      jump\t// out\n        /* \"#utility.yul\":4141:4481   */\n    tag_37:\n        /* \"#utility.yul\":4197:4202   */\n      0x00\n        /* \"#utility.yul\":4246:4249   */\n      dup3\n        /* \"#utility.yul\":4239:4243   */\n      0x1f\n        /* \"#utility.yul\":4231:4237   */\n      dup4\n        /* \"#utility.yul\":4227:4244   */\n      add\n        /* \"#utility.yul\":4223:4250   */\n      slt\n        /* \"#utility.yul\":4213:4335   */\n      tag_85\n      jumpi\n        /* \"#utility.yul\":4254:4333   */\n      tag_86\n      tag_28\n      jump\t// in\n    tag_86:\n        /* \"#utility.yul\":4213:4335   */\n    tag_85:\n        /* \"#utility.yul\":4371:4377   */\n      dup2\n        /* \"#utility.yul\":4358:4378   */\n      calldataload\n        /* \"#utility.yul\":4396:4475   */\n      tag_87\n        /* \"#utility.yul\":4471:4474   */\n      dup5\n        /* \"#utility.yul\":4463:4469   */\n      dup3\n        /* \"#utility.yul\":4456:4460   */\n      0x20\n        /* \"#utility.yul\":4448:4454   */\n      dup7\n        /* \"#utility.yul\":4444:4461   */\n      add\n        /* \"#utility.yul\":4396:4475   */\n      tag_36\n      jump\t// in\n    tag_87:\n        /* \"#utility.yul\":4387:4475   */\n      swap2\n      pop\n        /* \"#utility.yul\":4203:4481   */\n      pop\n        /* \"#utility.yul\":4141:4481   */\n      swap3\n      swap2\n      pop\n      pop\n      jump\t// out\n        /* \"#utility.yul\":4487:4609   */\n    tag_38:\n        /* \"#utility.yul\":4560:4584   */\n      tag_89\n        /* \"#utility.yul\":4578:4583   */\n      dup2\n        /* \"#utility.yul\":4560:4584   */\n      tag_20\n      jump\t// in\n    tag_89:\n        /* \"#utility.yul\":4553:4558   */\n      dup2\n        /* \"#utility.yul\":4550:4585   */\n      eq\n        /* \"#utility.yul\":4540:4603   */\n      tag_90\n      jumpi\n        /* \"#utility.yul\":4599:4600   */\n      0x00\n        /* \"#utility.yul\":4596:4597   */\n      dup1\n        /* \"#utility.yul\":4589:4601   */\n      revert\n        /* \"#utility.yul\":4540:4603   */\n    tag_90:\n        /* \"#utility.yul\":4487:4609   */\n      pop\n      jump\t// out\n        /* \"#utility.yul\":4615:4754   */\n    tag_39:\n        /* \"#utility.yul\":4661:4666   */\n      0x00\n        /* \"#utility.yul\":4699:4705   */\n      dup2\n        /* \"#utility.yul\":4686:4706   */\n      calldataload\n        /* \"#utility.yul\":4677:4706   */\n      swap1\n      pop\n        /* \"#utility.yul\":4715:4748   */\n      tag_92\n        /* \"#utility.yul\":4742:4747   */\n      dup2\n        /* \"#utility.yul\":4715:4748   */\n      tag_38\n      jump\t// in\n    tag_92:\n        /* \"#utility.yul\":4615:4754   */\n      swap3\n      swap2\n      pop\n      pop\n      jump\t// out\n        /* \"#utility.yul\":4760:5414   */\n    tag_10:\n        /* \"#utility.yul\":4838:4844   */\n      0x00\n        /* \"#utility.yul\":4846:4852   */\n      dup1\n        /* \"#utility.yul\":4895:4897   */\n      0x40\n        /* \"#utility.yul\":4883:4892   */\n      dup4\n        /* \"#utility.yul\":4874:4881   */\n      dup6\n        /* \"#utility.yul\":4870:4893   */\n      sub\n        /* \"#utility.yul\":4866:4898   */\n      slt\n        /* \"#utility.yul\":4863:4982   */\n      iszero\n      tag_94\n      jumpi\n        /* \"#utility.yul\":4901:4980   */\n      tag_95\n      tag_26\n      jump\t// in\n    tag_95:\n        /* \"#utility.yul\":4863:4982   */\n    tag_94:\n        /* \"#utility.yul\":5049:5050   */\n      0x00\n        /* \"#utility.yul\":5038:5047   */\n      dup4\n        /* \"#utility.yul\":5034:5051   */\n      add\n        /* \"#utility.yul\":5021:5052   */\n      calldataload\n        /* \"#utility.yul\":5079:5097   */\n      0xffffffffffffffff\n        /* \"#utility.yul\":5071:5077   */\n      dup2\n        /* \"#utility.yul\":5068:5098   */\n      gt\n        /* \"#utility.yul\":5065:5182   */\n      iszero\n      tag_96\n      jumpi\n        /* \"#utility.yul\":5101:5180   */\n      tag_97\n      tag_27\n      jump\t// in\n    tag_97:\n        /* \"#utility.yul\":5065:5182   */\n    tag_96:\n        /* \"#utility.yul\":5206:5269   */\n      tag_98\n        /* \"#utility.yul\":5261:5268   */\n      dup6\n        /* \"#utility.yul\":5252:5258   */\n      dup3\n        /* \"#utility.yul\":5241:5250   */\n      dup7\n        /* \"#utility.yul\":5237:5259   */\n      add\n        /* \"#utility.yul\":5206:5269   */\n      tag_37\n      jump\t// in\n    tag_98:\n        /* \"#utility.yul\":5196:5269   */\n      swap3\n      pop\n        /* \"#utility.yul\":4992:5279   */\n      pop\n        /* \"#utility.yul\":5318:5320   */\n      0x20\n        /* \"#utility.yul\":5344:5397   */\n      tag_99\n        /* \"#utility.yul\":5389:5396   */\n      dup6\n        /* \"#utility.yul\":5380:5386   */\n      dup3\n        /* \"#utility.yul\":5369:5378   */\n      dup7\n        /* \"#utility.yul\":5365:5387   */\n      add\n        /* \"#utility.yul\":5344:5397   */\n      tag_39\n      jump\t// in\n    tag_99:\n        /* \"#utility.yul\":5334:5397   */\n      swap2\n      pop\n        /* \"#utility.yul\":5289:5407   */\n      pop\n        /* \"#utility.yul\":4760:5414   */\n      swap3\n      pop\n      swap3\n      swap1\n      pop\n      jump\t// out\n        /* \"#utility.yul\":5420:5642   */\n    tag_13:\n        /* \"#utility.yul\":5513:5517   */\n      0x00\n        /* \"#utility.yul\":5551:5553   */\n      0x20\n        /* \"#utility.yul\":5540:5549   */\n      dup3\n        /* \"#utility.yul\":5536:5554   */\n      add\n        /* \"#utility.yul\":5528:5554   */\n      swap1\n      pop\n        /* \"#utility.yul\":5564:5635   */\n      tag_101\n        /* \"#utility.yul\":5632:5633   */\n      0x00\n        /* \"#utility.yul\":5621:5630   */\n      dup4\n        /* \"#utility.yul\":5617:5634   */\n      add\n        /* \"#utility.yul\":5608:5614   */\n      dup5\n        /* \"#utility.yul\":5564:5635   */\n      tag_21\n      jump\t// in\n    tag_101:\n        /* \"#utility.yul\":5420:5642   */\n      swap3\n      swap2\n      pop\n      pop\n      jump\t// out\n        /* \"#utility.yul\":5648:5828   */\n    tag_40:\n        /* \"#utility.yul\":5696:5773   */\n      0x4e487b7100000000000000000000000000000000000000000000000000000000\n        /* \"#utility.yul\":5693:5694   */\n      0x00\n        /* \"#utility.yul\":5686:5774   */\n      mstore\n        /* \"#utility.yul\":5793:5797   */\n      0x11\n        /* \"#utility.yul\":5790:5791   */\n      0x04\n        /* \"#utility.yul\":5783:5798   */\n      mstore\n        /* \"#utility.yul\":5817:5821   */\n      0x24\n        /* \"#utility.yul\":5814:5815   */\n      0x00\n        /* \"#utility.yul\":5807:5822   */\n      revert\n        /* \"#utility.yul\":5834:6025   */\n    tag_16:\n        /* \"#utility.yul\":5874:5877   */\n      0x00\n        /* \"#utility.yul\":5893:5913   */\n      tag_104\n        /* \"#utility.yul\":5911:5912   */\n      dup3\n        /* \"#utility.yul\":5893:5913   */\n      tag_20\n      jump\t// in\n    tag_104:\n        /* \"#utility.yul\":5888:5913   */\n      swap2\n      pop\n        /* \"#utility.yul\":5927:5947   */\n      tag_105\n        /* \"#utility.yul\":5945:5946   */\n      dup4\n        /* \"#utility.yul\":5927:5947   */\n      tag_20\n      jump\t// in\n    tag_105:\n        /* \"#utility.yul\":5922:5947   */\n      swap3\n      pop\n        /* \"#utility.yul\":5970:5971   */\n      dup3\n        /* \"#utility.yul\":5967:5968   */\n      dup3\n        /* \"#utility.yul\":5963:5972   */\n      add\n        /* \"#utility.yul\":5956:5972   */\n      swap1\n      pop\n        /* \"#utility.yul\":5991:5994   */\n      dup1\n        /* \"#utility.yul\":5988:5989   */\n      dup3\n        /* \"#utility.yul\":5985:5995   */\n      gt\n        /* \"#utility.yul\":5982:6018   */\n      iszero\n      tag_106\n      jumpi\n        /* \"#utility.yul\":5998:6016   */\n      tag_107\n      tag_40\n      jump\t// in\n    tag_107:\n        /* \"#utility.yul\":5982:6018   */\n    tag_106:\n        /* \"#utility.yul\":5834:6025   */\n      swap3\n      swap2\n      pop\n      pop\n      jump\t// out\n\n    auxdata: 0xa26469706673582212202acdedc15abeb976d4e1e5636f28177ee08a381cfc3e7a01ff6150cb7545914364736f6c634300081a0033\n}\n",
				"bytecode": {
					"linkReferences": {},
					"object": "6080604052348015600e575f80fd5b5061040e8061001c5f395ff3fe608060405260043610610021575f3560e01c806324ccab8f1461005d57610022565b5b7f59e04c3f0d44b7caf6e8ef854b61d9a51cf1960d7a88ff6356cc5e946b4b58323334604051610053929190610154565b60405180910390a1005b61007760048036038101906100729190610305565b61008d565b604051610084919061035f565b60405180910390f35b5f60018261009b91906103a5565b905092915050565b5f73ffffffffffffffffffffffffffffffffffffffff82169050919050565b5f6100cc826100a3565b9050919050565b6100dc816100c2565b82525050565b5f819050919050565b6100f4816100e2565b82525050565b5f82825260208201905092915050565b7f46616c6c6261636b207761732063616c6c6564000000000000000000000000005f82015250565b5f61013e6013836100fa565b91506101498261010a565b602082019050919050565b5f6060820190506101675f8301856100d3565b61017460208301846100eb565b818103604083015261018581610132565b90509392505050565b5f604051905090565b5f80fd5b5f80fd5b5f80fd5b5f80fd5b5f601f19601f8301169050919050565b7f4e487b71000000000000000000000000000000000000000000000000000000005f52604160045260245ffd5b6101ed826101a7565b810181811067ffffffffffffffff8211171561020c5761020b6101b7565b5b80604052505050565b5f61021e61018e565b905061022a82826101e4565b919050565b5f67ffffffffffffffff821115610249576102486101b7565b5b610252826101a7565b9050602081019050919050565b828183375f83830152505050565b5f61027f61027a8461022f565b610215565b90508281526020810184848401111561029b5761029a6101a3565b5b6102a684828561025f565b509392505050565b5f82601f8301126102c2576102c161019f565b5b81356102d284826020860161026d565b91505092915050565b6102e4816100e2565b81146102ee575f80fd5b50565b5f813590506102ff816102db565b92915050565b5f806040838503121561031b5761031a610197565b5b5f83013567ffffffffffffffff8111156103385761033761019b565b5b610344858286016102ae565b9250506020610355858286016102f1565b9150509250929050565b5f6020820190506103725f8301846100eb565b92915050565b7f4e487b71000000000000000000000000000000000000000000000000000000005f52601160045260245ffd5b5f6103af826100e2565b91506103ba836100e2565b92508282019050808211156103d2576103d1610378565b5b9291505056fea26469706673582212202acdedc15abeb976d4e1e5636f28177ee08a381cfc3e7a01ff6150cb7545914364736f6c634300081a0033",
					"opcodes": "PUSH1 0x80 PUSH1 0x40 MSTORE CALLVALUE DUP1 ISZERO PUSH1 0xE JUMPI PUSH0 DUP1 REVERT JUMPDEST POP PUSH2 0x40E DUP1 PUSH2 0x1C PUSH0 CODECOPY PUSH0 RETURN INVALID PUSH1 0x80 PUSH1 0x40 MSTORE PUSH1 0x4 CALLDATASIZE LT PUSH2 0x21 JUMPI PUSH0 CALLDATALOAD PUSH1 0xE0 SHR DUP1 PUSH4 0x24CCAB8F EQ PUSH2 0x5D JUMPI PUSH2 0x22 JUMP JUMPDEST JUMPDEST PUSH32 0x59E04C3F0D44B7CAF6E8EF854B61D9A51CF1960D7A88FF6356CC5E946B4B5832 CALLER CALLVALUE PUSH1 0x40 MLOAD PUSH2 0x53 SWAP3 SWAP2 SWAP1 PUSH2 0x154 JUMP JUMPDEST PUSH1 0x40 MLOAD DUP1 SWAP2 SUB SWAP1 LOG1 STOP JUMPDEST PUSH2 0x77 PUSH1 0x4 DUP1 CALLDATASIZE SUB DUP2 ADD SWAP1 PUSH2 0x72 SWAP2 SWAP1 PUSH2 0x305 JUMP JUMPDEST PUSH2 0x8D JUMP JUMPDEST PUSH1 0x40 MLOAD PUSH2 0x84 SWAP2 SWAP1 PUSH2 0x35F JUMP JUMPDEST PUSH1 0x40 MLOAD DUP1 SWAP2 SUB SWAP1 RETURN JUMPDEST PUSH0 PUSH1 0x1 DUP3 PUSH2 0x9B SWAP2 SWAP1 PUSH2 0x3A5 JUMP JUMPDEST SWAP1 POP SWAP3 SWAP2 POP POP JUMP JUMPDEST PUSH0 PUSH20 0xFFFFFFFFFFFFFFFFFFFFFFFFFFFFFFFFFFFFFFFF DUP3 AND SWAP1 POP SWAP2 SWAP1 POP JUMP JUMPDEST PUSH0 PUSH2 0xCC DUP3 PUSH2 0xA3 JUMP JUMPDEST SWAP1 POP SWAP2 SWAP1 POP JUMP JUMPDEST PUSH2 0xDC DUP2 PUSH2 0xC2 JUMP JUMPDEST DUP3 MSTORE POP POP JUMP JUMPDEST PUSH0 DUP2 SWAP1 POP SWAP2 SWAP1 POP JUMP JUMPDEST PUSH2 0xF4 DUP2 PUSH2 0xE2 JUMP JUMPDEST DUP3 MSTORE POP POP JUMP JUMPDEST PUSH0 DUP3 DUP3 MSTORE PUSH1 0x20 DUP3 ADD SWAP1 POP SWAP3 SWAP2 POP POP JUMP JUMPDEST PUSH32 0x46616C6C6261636B207761732063616C6C656400000000000000000000000000 PUSH0 DUP3 ADD MSTORE POP JUMP JUMPDEST PUSH0 PUSH2 0x13E PUSH1 0x13 DUP4 PUSH2 0xFA JUMP JUMPDEST SWAP2 POP PUSH2 0x149 DUP3 PUSH2 0x10A JUMP JUMPDEST PUSH1 0x20 DUP3 ADD SWAP1 POP SWAP2 SWAP1 POP JUMP JUMPDEST PUSH0 PUSH1 0x60 DUP3 ADD SWAP1 POP PUSH2 0x167 PUSH0 DUP4 ADD DUP6 PUSH2 0xD3 JUMP JUMPDEST PUSH2 0x174 PUSH1 0x20 DUP4 ADD DUP5 PUSH2 0xEB JUMP JUMPDEST DUP2 DUP2 SUB PUSH1 0x40 DUP4 ADD MSTORE PUSH2 0x185 DUP2 PUSH2 0x132 JUMP JUMPDEST SWAP1 POP SWAP4 SWAP3 POP POP POP JUMP JUMPDEST PUSH0 PUSH1 0x40 MLOAD SWAP1 POP SWAP1 JUMP JUMPDEST PUSH0 DUP1 REVERT JUMPDEST PUSH0 DUP1 REVERT JUMPDEST PUSH0 DUP1 REVERT JUMPDEST PUSH0 DUP1 REVERT JUMPDEST PUSH0 PUSH1 0x1F NOT PUSH1 0x1F DUP4 ADD AND SWAP1 POP SWAP2 SWAP1 POP JUMP JUMPDEST PUSH32 0x4E487B7100000000000000000000000000000000000000000000000000000000 PUSH0 MSTORE PUSH1 0x41 PUSH1 0x4 MSTORE PUSH1 0x24 PUSH0 REVERT JUMPDEST PUSH2 0x1ED DUP3 PUSH2 0x1A7 JUMP JUMPDEST DUP2 ADD DUP2 DUP2 LT PUSH8 0xFFFFFFFFFFFFFFFF DUP3 GT OR ISZERO PUSH2 0x20C JUMPI PUSH2 0x20B PUSH2 0x1B7 JUMP JUMPDEST JUMPDEST DUP1 PUSH1 0x40 MSTORE POP POP POP JUMP JUMPDEST PUSH0 PUSH2 0x21E PUSH2 0x18E JUMP JUMPDEST SWAP1 POP PUSH2 0x22A DUP3 DUP3 PUSH2 0x1E4 JUMP JUMPDEST SWAP2 SWAP1 POP JUMP JUMPDEST PUSH0 PUSH8 0xFFFFFFFFFFFFFFFF DUP3 GT ISZERO PUSH2 0x249 JUMPI PUSH2 0x248 PUSH2 0x1B7 JUMP JUMPDEST JUMPDEST PUSH2 0x252 DUP3 PUSH2 0x1A7 JUMP JUMPDEST SWAP1 POP PUSH1 0x20 DUP2 ADD SWAP1 POP SWAP2 SWAP1 POP JUMP JUMPDEST DUP3 DUP2 DUP4 CALLDATACOPY PUSH0 DUP4 DUP4 ADD MSTORE POP POP POP JUMP JUMPDEST PUSH0 PUSH2 0x27F PUSH2 0x27A DUP5 PUSH2 0x22F JUMP JUMPDEST PUSH2 0x215 JUMP JUMPDEST SWAP1 POP DUP3 DUP2 MSTORE PUSH1 0x20 DUP2 ADD DUP5 DUP5 DUP5 ADD GT ISZERO PUSH2 0x29B JUMPI PUSH2 0x29A PUSH2 0x1A3 JUMP JUMPDEST JUMPDEST PUSH2 0x2A6 DUP5 DUP3 DUP6 PUSH2 0x25F JUMP JUMPDEST POP SWAP4 SWAP3 POP POP POP JUMP JUMPDEST PUSH0 DUP3 PUSH1 0x1F DUP4 ADD SLT PUSH2 0x2C2 JUMPI PUSH2 0x2C1 PUSH2 0x19F JUMP JUMPDEST JUMPDEST DUP2 CALLDATALOAD PUSH2 0x2D2 DUP5 DUP3 PUSH1 0x20 DUP7 ADD PUSH2 0x26D JUMP JUMPDEST SWAP2 POP POP SWAP3 SWAP2 POP POP JUMP JUMPDEST PUSH2 0x2E4 DUP2 PUSH2 0xE2 JUMP JUMPDEST DUP2 EQ PUSH2 0x2EE JUMPI PUSH0 DUP1 REVERT JUMPDEST POP JUMP JUMPDEST PUSH0 DUP2 CALLDATALOAD SWAP1 POP PUSH2 0x2FF DUP2 PUSH2 0x2DB JUMP JUMPDEST SWAP3 SWAP2 POP POP JUMP JUMPDEST PUSH0 DUP1 PUSH1 0x40 DUP4 DUP6 SUB SLT ISZERO PUSH2 0x31B JUMPI PUSH2 0x31A PUSH2 0x197 JUMP JUMPDEST JUMPDEST PUSH0 DUP4 ADD CALLDATALOAD PUSH8 0xFFFFFFFFFFFFFFFF DUP2 GT ISZERO PUSH2 0x338 JUMPI PUSH2 0x337 PUSH2 0x19B JUMP JUMPDEST JUMPDEST PUSH2 0x344 DUP6 DUP3 DUP7 ADD PUSH2 0x2AE JUMP JUMPDEST SWAP3 POP POP PUSH1 0x20 PUSH2 0x355 DUP6 DUP3 DUP7 ADD PUSH2 0x2F1 JUMP JUMPDEST SWAP2 POP POP SWAP3 POP SWAP3 SWAP1 POP JUMP JUMPDEST PUSH0 PUSH1 0x20 DUP3 ADD SWAP1 POP PUSH2 0x372 PUSH0 DUP4 ADD DUP5 PUSH2 0xEB JUMP JUMPDEST SWAP3 SWAP2 POP POP JUMP JUMPDEST PUSH32 0x4E487B7100000000000000000000000000000000000000000000000000000000 PUSH0 MSTORE PUSH1 0x11 PUSH1 0x4 MSTORE PUSH1 0x24 PUSH0 REVERT JUMPDEST PUSH0 PUSH2 0x3AF DUP3 PUSH2 0xE2 JUMP JUMPDEST SWAP2 POP PUSH2 0x3BA DUP4 PUSH2 0xE2 JUMP JUMPDEST SWAP3 POP DUP3 DUP3 ADD SWAP1 POP DUP1 DUP3 GT ISZERO PUSH2 0x3D2 JUMPI PUSH2 0x3D1 PUSH2 0x378 JUMP JUMPDEST JUMPDEST SWAP3 SWAP2 POP POP JUMP INVALID LOG2 PUSH5 0x6970667358 0x22 SLT KECCAK256 0x2A 0xCD 0xED 0xC1 GAS 0xBE 0xB9 PUSH23 0xD4E1E5636F28177EE08A381CFC3E7A01FF6150CB754591 NUMBER PUSH5 0x736F6C6343 STOP ADDMOD BYTE STOP CALLER "
				},
				"gasEstimates": {
					"creation": {
						"codeDepositCost": "207600",
						"executionCost": "249",
						"totalCost": "207849"
					},
					"external": {
						"": "2643",
						"foo(string,uint256)": "infinite"
					}
				},
				"methodIdentifiers": {
					"foo(string,uint256)": "24ccab8f"
				}
			},
			"storageLayout": {
				"storage": [],
				"types": null
			},
			"userdoc": {
				"kind": "user",
				"methods": {},
				"version": 1
			}
		}
	}
}