{
	"contracts/delta.sol": {
		"Delta": {
			"abi": [
				{
					"inputs": [
						{
							"internalType": "uint256",
							"name": "balance",
							"type": "uint256"
						},
						{
							"internalType": "uint256",
							"name": "withdrawAmount",
							"type": "uint256"
						}
					],
					"name": "InsufficientBalance",
					"type": "error"
				},
				{
					"inputs": [
						{
							"internalType": "uint256",
							"name": "_withdrawal",
							"type": "uint256"
						}
					],
					"name": "customError",
					"outputs": [],
					"stateMutability": "view",
					"type": "function"
				},
				{
					"inputs": [
						{
							"internalType": "uint256",
							"name": "input",
							"type": "uint256"
						}
					],
					"name": "req",
					"outputs": [
						{
							"internalType": "string",
							"name": "verdict",
							"type": "string"
						}
					],
					"stateMutability": "pure",
					"type": "function"
				},
				{
					"inputs": [
						{
							"internalType": "uint256",
							"name": "revInput",
							"type": "uint256"
						}
					],
					"name": "rev",
					"outputs": [],
					"stateMutability": "pure",
					"type": "function"
				},
				{
					"inputs": [],
					"name": "userBalance",
					"outputs": [
						{
							"internalType": "uint256",
							"name": "",
							"type": "uint256"
						}
					],
					"stateMutability": "view",
					"type": "function"
				}
			],
			"devdoc": {
				"kind": "dev",
				"methods": {},
				"version": 1
			},
			"evm": {
				"assembly": "    /* \"contracts/delta.sol\":58:877  contract Delta {... */\n  mstore(0x40, 0x80)\n    /* \"contracts/delta.sol\":108:115  1 ether */\n  0x0de0b6b3a7640000\n    /* \"contracts/delta.sol\":79:115  uint256 public userBalance = 1 ether */\n  0x00\n  sstore\n    /* \"contracts/delta.sol\":58:877  contract Delta {... */\n  callvalue\n  dup1\n  iszero\n  tag_1\n  jumpi\n  0x00\n  dup1\n  revert\ntag_1:\n  pop\n  dataSize(sub_0)\n  dup1\n  dataOffset(sub_0)\n  0x00\n  codecopy\n  0x00\n  return\nstop\n\nsub_0: assembly {\n        /* \"contracts/delta.sol\":58:877  contract Delta {... */\n      mstore(0x40, 0x80)\n      callvalue\n      dup1\n      iszero\n      tag_1\n      jumpi\n      0x00\n      dup1\n      revert\n    tag_1:\n      pop\n      jumpi(tag_2, lt(calldatasize, 0x04))\n      shr(0xe0, calldataload(0x00))\n      dup1\n      0x2509f77c\n      eq\n      tag_3\n      jumpi\n      dup1\n      0x623bcb7b\n      eq\n      tag_4\n      jumpi\n      dup1\n      0xb7bb2967\n      eq\n      tag_5\n      jumpi\n      dup1\n      0xbf152765\n      eq\n      tag_6\n      jumpi\n    tag_2:\n      0x00\n      dup1\n      revert\n        /* \"contracts/delta.sol\":595:875  function customError(uint256 _withdrawal) public view {... */\n    tag_3:\n      tag_7\n      0x04\n      dup1\n      calldatasize\n      sub\n      dup2\n      add\n      swap1\n      tag_8\n      swap2\n      swap1\n      tag_9\n      jump\t// in\n    tag_8:\n      tag_10\n      jump\t// in\n    tag_7:\n      stop\n        /* \"contracts/delta.sol\":326:498  function rev(uint256 revInput) public pure {... */\n    tag_4:\n      tag_11\n      0x04\n      dup1\n      calldatasize\n      sub\n      dup2\n      add\n      swap1\n      tag_12\n      swap2\n      swap1\n      tag_9\n      jump\t// in\n    tag_12:\n      tag_13\n      jump\t// in\n    tag_11:\n      stop\n        /* \"contracts/delta.sol\":136:298  function req(uint256 input) public pure returns (string memory verdict) {... */\n    tag_5:\n      tag_14\n      0x04\n      dup1\n      calldatasize\n      sub\n      dup2\n      add\n      swap1\n      tag_15\n      swap2\n      swap1\n      tag_9\n      jump\t// in\n    tag_15:\n      tag_16\n      jump\t// in\n    tag_14:\n      mload(0x40)\n      tag_17\n      swap2\n      swap1\n      tag_18\n      jump\t// in\n    tag_17:\n      mload(0x40)\n      dup1\n      swap2\n      sub\n      swap1\n      return\n        /* \"contracts/delta.sol\":79:115  uint256 public userBalance = 1 ether */\n    tag_6:\n      tag_19\n      tag_20\n      jump\t// in\n    tag_19:\n      mload(0x40)\n      tag_21\n      swap2\n      swap1\n      tag_22\n      jump\t// in\n    tag_21:\n      mload(0x40)\n      dup1\n      swap2\n      sub\n      swap1\n      return\n        /* \"contracts/delta.sol\":595:875  function customError(uint256 _withdrawal) public view {... */\n    tag_10:\n        /* \"contracts/delta.sol\":659:670  uint256 bal */\n      0x00\n        /* \"contracts/delta.sol\":673:694  address(this).balance */\n      selfbalance\n        /* \"contracts/delta.sol\":659:694  uint256 bal = address(this).balance */\n      swap1\n      pop\n        /* \"contracts/delta.sol\":714:725  _withdrawal */\n      dup2\n        /* \"contracts/delta.sol\":708:711  bal */\n      dup2\n        /* \"contracts/delta.sol\":708:725  bal < _withdrawal */\n      lt\n        /* \"contracts/delta.sol\":704:869  if (bal < _withdrawal) {... */\n      iszero\n      tag_24\n      jumpi\n        /* \"contracts/delta.sol\":795:798  bal */\n      dup1\n        /* \"contracts/delta.sol\":832:843  _withdrawal */\n      dup3\n        /* \"contracts/delta.sol\":748:858  InsufficientBalance({... */\n      mload(0x40)\n      0xcf47918100000000000000000000000000000000000000000000000000000000\n      dup2\n      mstore\n      0x04\n      add\n      tag_25\n      swap3\n      swap2\n      swap1\n      tag_26\n      jump\t// in\n    tag_25:\n      mload(0x40)\n      dup1\n      swap2\n      sub\n      swap1\n      revert\n        /* \"contracts/delta.sol\":704:869  if (bal < _withdrawal) {... */\n    tag_24:\n        /* \"contracts/delta.sol\":649:875  {... */\n      pop\n        /* \"contracts/delta.sol\":595:875  function customError(uint256 _withdrawal) public view {... */\n      pop\n      jump\t// out\n        /* \"contracts/delta.sol\":326:498  function rev(uint256 revInput) public pure {... */\n    tag_13:\n        /* \"contracts/delta.sol\":398:399  0 */\n      0x00\n        /* \"contracts/delta.sol\":386:394  revInput */\n      dup2\n        /* \"contracts/delta.sol\":386:399  revInput != 0 */\n      sub\n        /* \"contracts/delta.sol\":379:400  assert(revInput != 0) */\n      tag_28\n      jumpi\n      tag_29\n      tag_30\n      jump\t// in\n    tag_29:\n    tag_28:\n        /* \"contracts/delta.sol\":426:427  5 */\n      0x05\n        /* \"contracts/delta.sol\":414:422  revInput */\n      dup2\n        /* \"contracts/delta.sol\":414:427  revInput <= 5 */\n      gt\n        /* \"contracts/delta.sol\":410:492  if (revInput <= 5) {... */\n      tag_31\n      jumpi\n        /* \"contracts/delta.sol\":443:481  revert(\"Input must be greater than 5\") */\n      mload(0x40)\n      0x08c379a000000000000000000000000000000000000000000000000000000000\n      dup2\n      mstore\n      0x04\n      add\n      tag_32\n      swap1\n      tag_33\n      jump\t// in\n    tag_32:\n      mload(0x40)\n      dup1\n      swap2\n      sub\n      swap1\n      revert\n        /* \"contracts/delta.sol\":410:492  if (revInput <= 5) {... */\n    tag_31:\n        /* \"contracts/delta.sol\":326:498  function rev(uint256 revInput) public pure {... */\n      pop\n      jump\t// out\n        /* \"contracts/delta.sol\":136:298  function req(uint256 input) public pure returns (string memory verdict) {... */\n    tag_16:\n        /* \"contracts/delta.sol\":185:206  string memory verdict */\n      0x60\n        /* \"contracts/delta.sol\":235:237  18 */\n      0x12\n        /* \"contracts/delta.sol\":226:231  input */\n      dup3\n        /* \"contracts/delta.sol\":226:237  input >= 18 */\n      lt\n      iszero\n        /* \"contracts/delta.sol\":218:257  require(input >= 18, \"User is a minor\") */\n      tag_35\n      jumpi\n      mload(0x40)\n      0x08c379a000000000000000000000000000000000000000000000000000000000\n      dup2\n      mstore\n      0x04\n      add\n      tag_36\n      swap1\n      tag_37\n      jump\t// in\n    tag_36:\n      mload(0x40)\n      dup1\n      swap2\n      sub\n      swap1\n      revert\n    tag_35:\n        /* \"contracts/delta.sol\":267:291  return \"You can't vote!\" */\n      mload(0x40)\n      dup1\n      0x40\n      add\n      0x40\n      mstore\n      dup1\n      0x0f\n      dup2\n      mstore\n      0x20\n      add\n      0x596f752063616e277420766f7465210000000000000000000000000000000000\n      dup2\n      mstore\n      pop\n      swap1\n      pop\n        /* \"contracts/delta.sol\":136:298  function req(uint256 input) public pure returns (string memory verdict) {... */\n      swap2\n      swap1\n      pop\n      jump\t// out\n        /* \"contracts/delta.sol\":79:115  uint256 public userBalance = 1 ether */\n    tag_20:\n      sload(0x00)\n      dup2\n      jump\t// out\n        /* \"#utility.yul\":88:205   */\n    tag_39:\n        /* \"#utility.yul\":197:198   */\n      0x00\n        /* \"#utility.yul\":194:195   */\n      dup1\n        /* \"#utility.yul\":187:199   */\n      revert\n        /* \"#utility.yul\":334:411   */\n    tag_41:\n        /* \"#utility.yul\":371:378   */\n      0x00\n        /* \"#utility.yul\":400:405   */\n      dup2\n        /* \"#utility.yul\":389:405   */\n      swap1\n      pop\n        /* \"#utility.yul\":334:411   */\n      swap2\n      swap1\n      pop\n      jump\t// out\n        /* \"#utility.yul\":417:539   */\n    tag_42:\n        /* \"#utility.yul\":490:514   */\n      tag_60\n        /* \"#utility.yul\":508:513   */\n      dup2\n        /* \"#utility.yul\":490:514   */\n      tag_41\n      jump\t// in\n    tag_60:\n        /* \"#utility.yul\":483:488   */\n      dup2\n        /* \"#utility.yul\":480:515   */\n      eq\n        /* \"#utility.yul\":470:533   */\n      tag_61\n      jumpi\n        /* \"#utility.yul\":529:530   */\n      0x00\n        /* \"#utility.yul\":526:527   */\n      dup1\n        /* \"#utility.yul\":519:531   */\n      revert\n        /* \"#utility.yul\":470:533   */\n    tag_61:\n        /* \"#utility.yul\":417:539   */\n      pop\n      jump\t// out\n        /* \"#utility.yul\":545:684   */\n    tag_43:\n        /* \"#utility.yul\":591:596   */\n      0x00\n        /* \"#utility.yul\":629:635   */\n      dup2\n        /* \"#utility.yul\":616:636   */\n      calldataload\n        /* \"#utility.yul\":607:636   */\n      swap1\n      pop\n        /* \"#utility.yul\":645:678   */\n      tag_63\n        /* \"#utility.yul\":672:677   */\n      dup2\n        /* \"#utility.yul\":645:678   */\n      tag_42\n      jump\t// in\n    tag_63:\n        /* \"#utility.yul\":545:684   */\n      swap3\n      swap2\n      pop\n      pop\n      jump\t// out\n        /* \"#utility.yul\":690:1019   */\n    tag_9:\n        /* \"#utility.yul\":749:755   */\n      0x00\n        /* \"#utility.yul\":798:800   */\n      0x20\n        /* \"#utility.yul\":786:795   */\n      dup3\n        /* \"#utility.yul\":777:784   */\n      dup5\n        /* \"#utility.yul\":773:796   */\n      sub\n        /* \"#utility.yul\":769:801   */\n      slt\n        /* \"#utility.yul\":766:885   */\n      iszero\n      tag_65\n      jumpi\n        /* \"#utility.yul\":804:883   */\n      tag_66\n      tag_39\n      jump\t// in\n    tag_66:\n        /* \"#utility.yul\":766:885   */\n    tag_65:\n        /* \"#utility.yul\":924:925   */\n      0x00\n        /* \"#utility.yul\":949:1002   */\n      tag_67\n        /* \"#utility.yul\":994:1001   */\n      dup5\n        /* \"#utility.yul\":985:991   */\n      dup3\n        /* \"#utility.yul\":974:983   */\n      dup6\n        /* \"#utility.yul\":970:992   */\n      add\n        /* \"#utility.yul\":949:1002   */\n      tag_43\n      jump\t// in\n    tag_67:\n        /* \"#utility.yul\":939:1002   */\n      swap2\n      pop\n        /* \"#utility.yul\":895:1012   */\n      pop\n        /* \"#utility.yul\":690:1019   */\n      swap3\n      swap2\n      pop\n      pop\n      jump\t// out\n        /* \"#utility.yul\":1025:1124   */\n    tag_44:\n        /* \"#utility.yul\":1077:1083   */\n      0x00\n        /* \"#utility.yul\":1111:1116   */\n      dup2\n        /* \"#utility.yul\":1105:1117   */\n      mload\n        /* \"#utility.yul\":1095:1117   */\n      swap1\n      pop\n        /* \"#utility.yul\":1025:1124   */\n      swap2\n      swap1\n      pop\n      jump\t// out\n        /* \"#utility.yul\":1130:1299   */\n    tag_45:\n        /* \"#utility.yul\":1214:1225   */\n      0x00\n        /* \"#utility.yul\":1248:1254   */\n      dup3\n        /* \"#utility.yul\":1243:1246   */\n      dup3\n        /* \"#utility.yul\":1236:1255   */\n      mstore\n        /* \"#utility.yul\":1288:1292   */\n      0x20\n        /* \"#utility.yul\":1283:1286   */\n      dup3\n        /* \"#utility.yul\":1279:1293   */\n      add\n        /* \"#utility.yul\":1264:1293   */\n      swap1\n      pop\n        /* \"#utility.yul\":1130:1299   */\n      swap3\n      swap2\n      pop\n      pop\n      jump\t// out\n        /* \"#utility.yul\":1305:1444   */\n    tag_46:\n        /* \"#utility.yul\":1394:1400   */\n      dup3\n        /* \"#utility.yul\":1389:1392   */\n      dup2\n        /* \"#utility.yul\":1384:1387   */\n      dup4\n        /* \"#utility.yul\":1378:1401   */\n      mcopy\n        /* \"#utility.yul\":1435:1436   */\n      0x00\n        /* \"#utility.yul\":1426:1432   */\n      dup4\n        /* \"#utility.yul\":1421:1424   */\n      dup4\n        /* \"#utility.yul\":1417:1433   */\n      add\n        /* \"#utility.yul\":1410:1437   */\n      mstore\n        /* \"#utility.yul\":1305:1444   */\n      pop\n      pop\n      pop\n      jump\t// out\n        /* \"#utility.yul\":1450:1552   */\n    tag_47:\n        /* \"#utility.yul\":1491:1497   */\n      0x00\n        /* \"#utility.yul\":1542:1544   */\n      0x1f\n        /* \"#utility.yul\":1538:1545   */\n      not\n        /* \"#utility.yul\":1533:1535   */\n      0x1f\n        /* \"#utility.yul\":1526:1531   */\n      dup4\n        /* \"#utility.yul\":1522:1536   */\n      add\n        /* \"#utility.yul\":1518:1546   */\n      and\n        /* \"#utility.yul\":1508:1546   */\n      swap1\n      pop\n        /* \"#utility.yul\":1450:1552   */\n      swap2\n      swap1\n      pop\n      jump\t// out\n        /* \"#utility.yul\":1558:1935   */\n    tag_48:\n        /* \"#utility.yul\":1646:1649   */\n      0x00\n        /* \"#utility.yul\":1674:1713   */\n      tag_73\n        /* \"#utility.yul\":1707:1712   */\n      dup3\n        /* \"#utility.yul\":1674:1713   */\n      tag_44\n      jump\t// in\n    tag_73:\n        /* \"#utility.yul\":1729:1800   */\n      tag_74\n        /* \"#utility.yul\":1793:1799   */\n      dup2\n        /* \"#utility.yul\":1788:1791   */\n      dup6\n        /* \"#utility.yul\":1729:1800   */\n      tag_45\n      jump\t// in\n    tag_74:\n        /* \"#utility.yul\":1722:1800   */\n      swap4\n      pop\n        /* \"#utility.yul\":1809:1874   */\n      tag_75\n        /* \"#utility.yul\":1867:1873   */\n      dup2\n        /* \"#utility.yul\":1862:1865   */\n      dup6\n        /* \"#utility.yul\":1855:1859   */\n      0x20\n        /* \"#utility.yul\":1848:1853   */\n      dup7\n        /* \"#utility.yul\":1844:1860   */\n      add\n        /* \"#utility.yul\":1809:1874   */\n      tag_46\n      jump\t// in\n    tag_75:\n        /* \"#utility.yul\":1899:1928   */\n      tag_76\n        /* \"#utility.yul\":1921:1927   */\n      dup2\n        /* \"#utility.yul\":1899:1928   */\n      tag_47\n      jump\t// in\n    tag_76:\n        /* \"#utility.yul\":1894:1897   */\n      dup5\n        /* \"#utility.yul\":1890:1929   */\n      add\n        /* \"#utility.yul\":1883:1929   */\n      swap2\n      pop\n        /* \"#utility.yul\":1650:1935   */\n      pop\n        /* \"#utility.yul\":1558:1935   */\n      swap3\n      swap2\n      pop\n      pop\n      jump\t// out\n        /* \"#utility.yul\":1941:2254   */\n    tag_18:\n        /* \"#utility.yul\":2054:2058   */\n      0x00\n        /* \"#utility.yul\":2092:2094   */\n      0x20\n        /* \"#utility.yul\":2081:2090   */\n      dup3\n        /* \"#utility.yul\":2077:2095   */\n      add\n        /* \"#utility.yul\":2069:2095   */\n      swap1\n      pop\n        /* \"#utility.yul\":2141:2150   */\n      dup2\n        /* \"#utility.yul\":2135:2139   */\n      dup2\n        /* \"#utility.yul\":2131:2151   */\n      sub\n        /* \"#utility.yul\":2127:2128   */\n      0x00\n        /* \"#utility.yul\":2116:2125   */\n      dup4\n        /* \"#utility.yul\":2112:2129   */\n      add\n        /* \"#utility.yul\":2105:2152   */\n      mstore\n        /* \"#utility.yul\":2169:2247   */\n      tag_78\n        /* \"#utility.yul\":2242:2246   */\n      dup2\n        /* \"#utility.yul\":2233:2239   */\n      dup5\n        /* \"#utility.yul\":2169:2247   */\n      tag_48\n      jump\t// in\n    tag_78:\n        /* \"#utility.yul\":2161:2247   */\n      swap1\n      pop\n        /* \"#utility.yul\":1941:2254   */\n      swap3\n      swap2\n      pop\n      pop\n      jump\t// out\n        /* \"#utility.yul\":2260:2378   */\n    tag_49:\n        /* \"#utility.yul\":2347:2371   */\n      tag_80\n        /* \"#utility.yul\":2365:2370   */\n      dup2\n        /* \"#utility.yul\":2347:2371   */\n      tag_41\n      jump\t// in\n    tag_80:\n        /* \"#utility.yul\":2342:2345   */\n      dup3\n        /* \"#utility.yul\":2335:2372   */\n      mstore\n        /* \"#utility.yul\":2260:2378   */\n      pop\n      pop\n      jump\t// out\n        /* \"#utility.yul\":2384:2606   */\n    tag_22:\n        /* \"#utility.yul\":2477:2481   */\n      0x00\n        /* \"#utility.yul\":2515:2517   */\n      0x20\n        /* \"#utility.yul\":2504:2513   */\n      dup3\n        /* \"#utility.yul\":2500:2518   */\n      add\n        /* \"#utility.yul\":2492:2518   */\n      swap1\n      pop\n        /* \"#utility.yul\":2528:2599   */\n      tag_82\n        /* \"#utility.yul\":2596:2597   */\n      0x00\n        /* \"#utility.yul\":2585:2594   */\n      dup4\n        /* \"#utility.yul\":2581:2598   */\n      add\n        /* \"#utility.yul\":2572:2578   */\n      dup5\n        /* \"#utility.yul\":2528:2599   */\n      tag_49\n      jump\t// in\n    tag_82:\n        /* \"#utility.yul\":2384:2606   */\n      swap3\n      swap2\n      pop\n      pop\n      jump\t// out\n        /* \"#utility.yul\":2612:2944   */\n    tag_26:\n        /* \"#utility.yul\":2733:2737   */\n      0x00\n        /* \"#utility.yul\":2771:2773   */\n      0x40\n        /* \"#utility.yul\":2760:2769   */\n      dup3\n        /* \"#utility.yul\":2756:2774   */\n      add\n        /* \"#utility.yul\":2748:2774   */\n      swap1\n      pop\n        /* \"#utility.yul\":2784:2855   */\n      tag_84\n        /* \"#utility.yul\":2852:2853   */\n      0x00\n        /* \"#utility.yul\":2841:2850   */\n      dup4\n        /* \"#utility.yul\":2837:2854   */\n      add\n        /* \"#utility.yul\":2828:2834   */\n      dup6\n        /* \"#utility.yul\":2784:2855   */\n      tag_49\n      jump\t// in\n    tag_84:\n        /* \"#utility.yul\":2865:2937   */\n      tag_85\n        /* \"#utility.yul\":2933:2935   */\n      0x20\n        /* \"#utility.yul\":2922:2931   */\n      dup4\n        /* \"#utility.yul\":2918:2936   */\n      add\n        /* \"#utility.yul\":2909:2915   */\n      dup5\n        /* \"#utility.yul\":2865:2937   */\n      tag_49\n      jump\t// in\n    tag_85:\n        /* \"#utility.yul\":2612:2944   */\n      swap4\n      swap3\n      pop\n      pop\n      pop\n      jump\t// out\n        /* \"#utility.yul\":2950:3130   */\n    tag_30:\n        /* \"#utility.yul\":2998:3075   */\n      0x4e487b7100000000000000000000000000000000000000000000000000000000\n        /* \"#utility.yul\":2995:2996   */\n      0x00\n        /* \"#utility.yul\":2988:3076   */\n      mstore\n        /* \"#utility.yul\":3095:3099   */\n      0x01\n        /* \"#utility.yul\":3092:3093   */\n      0x04\n        /* \"#utility.yul\":3085:3100   */\n      mstore\n        /* \"#utility.yul\":3119:3123   */\n      0x24\n        /* \"#utility.yul\":3116:3117   */\n      0x00\n        /* \"#utility.yul\":3109:3124   */\n      revert\n        /* \"#utility.yul\":3136:3314   */\n    tag_50:\n        /* \"#utility.yul\":3276:3306   */\n      0x496e707574206d7573742062652067726561746572207468616e203500000000\n        /* \"#utility.yul\":3272:3273   */\n      0x00\n        /* \"#utility.yul\":3264:3270   */\n      dup3\n        /* \"#utility.yul\":3260:3274   */\n      add\n        /* \"#utility.yul\":3253:3307   */\n      mstore\n        /* \"#utility.yul\":3136:3314   */\n      pop\n      jump\t// out\n        /* \"#utility.yul\":3320:3686   */\n    tag_51:\n        /* \"#utility.yul\":3462:3465   */\n      0x00\n        /* \"#utility.yul\":3483:3550   */\n      tag_89\n        /* \"#utility.yul\":3547:3549   */\n      0x1c\n        /* \"#utility.yul\":3542:3545   */\n      dup4\n        /* \"#utility.yul\":3483:3550   */\n      tag_45\n      jump\t// in\n    tag_89:\n        /* \"#utility.yul\":3476:3550   */\n      swap2\n      pop\n        /* \"#utility.yul\":3559:3652   */\n      tag_90\n        /* \"#utility.yul\":3648:3651   */\n      dup3\n        /* \"#utility.yul\":3559:3652   */\n      tag_50\n      jump\t// in\n    tag_90:\n        /* \"#utility.yul\":3677:3679   */\n      0x20\n        /* \"#utility.yul\":3672:3675   */\n      dup3\n        /* \"#utility.yul\":3668:3680   */\n      add\n        /* \"#utility.yul\":3661:3680   */\n      swap1\n      pop\n        /* \"#utility.yul\":3320:3686   */\n      swap2\n      swap1\n      pop\n      jump\t// out\n        /* \"#utility.yul\":3692:4111   */\n    tag_33:\n        /* \"#utility.yul\":3858:3862   */\n      0x00\n        /* \"#utility.yul\":3896:3898   */\n      0x20\n        /* \"#utility.yul\":3885:3894   */\n      dup3\n        /* \"#utility.yul\":3881:3899   */\n      add\n        /* \"#utility.yul\":3873:3899   */\n      swap1\n      pop\n        /* \"#utility.yul\":3945:3954   */\n      dup2\n        /* \"#utility.yul\":3939:3943   */\n      dup2\n        /* \"#utility.yul\":3935:3955   */\n      sub\n        /* \"#utility.yul\":3931:3932   */\n      0x00\n        /* \"#utility.yul\":3920:3929   */\n      dup4\n        /* \"#utility.yul\":3916:3933   */\n      add\n        /* \"#utility.yul\":3909:3956   */\n      mstore\n        /* \"#utility.yul\":3973:4104   */\n      tag_92\n        /* \"#utility.yul\":4099:4103   */\n      dup2\n        /* \"#utility.yul\":3973:4104   */\n      tag_51\n      jump\t// in\n    tag_92:\n        /* \"#utility.yul\":3965:4104   */\n      swap1\n      pop\n        /* \"#utility.yul\":3692:4111   */\n      swap2\n      swap1\n      pop\n      jump\t// out\n        /* \"#utility.yul\":4117:4282   */\n    tag_52:\n        /* \"#utility.yul\":4257:4274   */\n      0x557365722069732061206d696e6f720000000000000000000000000000000000\n        /* \"#utility.yul\":4253:4254   */\n      0x00\n        /* \"#utility.yul\":4245:4251   */\n      dup3\n        /* \"#utility.yul\":4241:4255   */\n      add\n        /* \"#utility.yul\":4234:4275   */\n      mstore\n        /* \"#utility.yul\":4117:4282   */\n      pop\n      jump\t// out\n        /* \"#utility.yul\":4288:4654   */\n    tag_53:\n        /* \"#utility.yul\":4430:4433   */\n      0x00\n        /* \"#utility.yul\":4451:4518   */\n      tag_95\n        /* \"#utility.yul\":4515:4517   */\n      0x0f\n        /* \"#utility.yul\":4510:4513   */\n      dup4\n        /* \"#utility.yul\":4451:4518   */\n      tag_45\n      jump\t// in\n    tag_95:\n        /* \"#utility.yul\":4444:4518   */\n      swap2\n      pop\n        /* \"#utility.yul\":4527:4620   */\n      tag_96\n        /* \"#utility.yul\":4616:4619   */\n      dup3\n        /* \"#utility.yul\":4527:4620   */\n      tag_52\n      jump\t// in\n    tag_96:\n        /* \"#utility.yul\":4645:4647   */\n      0x20\n        /* \"#utility.yul\":4640:4643   */\n      dup3\n        /* \"#utility.yul\":4636:4648   */\n      add\n        /* \"#utility.yul\":4629:4648   */\n      swap1\n      pop\n        /* \"#utility.yul\":4288:4654   */\n      swap2\n      swap1\n      pop\n      jump\t// out\n        /* \"#utility.yul\":4660:5079   */\n    tag_37:\n        /* \"#utility.yul\":4826:4830   */\n      0x00\n        /* \"#utility.yul\":4864:4866   */\n      0x20\n        /* \"#utility.yul\":4853:4862   */\n      dup3\n        /* \"#utility.yul\":4849:4867   */\n      add\n        /* \"#utility.yul\":4841:4867   */\n      swap1\n      pop\n        /* \"#utility.yul\":4913:4922   */\n      dup2\n        /* \"#utility.yul\":4907:4911   */\n      dup2\n        /* \"#utility.yul\":4903:4923   */\n      sub\n        /* \"#utility.yul\":4899:4900   */\n      0x00\n        /* \"#utility.yul\":4888:4897   */\n      dup4\n        /* \"#utility.yul\":4884:4901   */\n      add\n        /* \"#utility.yul\":4877:4924   */\n      mstore\n        /* \"#utility.yul\":4941:5072   */\n      tag_98\n        /* \"#utility.yul\":5067:5071   */\n      dup2\n        /* \"#utility.yul\":4941:5072   */\n      tag_53\n      jump\t// in\n    tag_98:\n        /* \"#utility.yul\":4933:5072   */\n      swap1\n      pop\n        /* \"#utility.yul\":4660:5079   */\n      swap2\n      swap1\n      pop\n      jump\t// out\n\n    auxdata: 0xa2646970667358221220f2a91dca9135fb2785d9fda4c00ddc6a033e33346fe323144059237569616b8f64736f6c634300081a0033\n}\n",
				"bytecode": {
					"linkReferences": {},
					"object": "6080604052670de0b6b3a76400005f553480156019575f80fd5b50610475806100275f395ff3fe608060405234801561000f575f80fd5b506004361061004a575f3560e01c80632509f77c1461004e578063623bcb7b1461006a578063b7bb296714610086578063bf152765146100b6575b5f80fd5b61006860048036038101906100639190610238565b6100d4565b005b610084600480360381019061007f9190610238565b610123565b005b6100a0600480360381019061009b9190610238565b610179565b6040516100ad91906102d3565b60405180910390f35b6100be6101fc565b6040516100cb9190610302565b60405180910390f35b5f4790508181101561011f5780826040517fcf47918100000000000000000000000000000000000000000000000000000000815260040161011692919061031b565b60405180910390fd5b5050565b5f810361013357610132610342565b5b60058111610176576040517f08c379a000000000000000000000000000000000000000000000000000000000815260040161016d906103b9565b60405180910390fd5b50565b606060128210156101bf576040517f08c379a00000000000000000000000000000000000000000000000000000000081526004016101b690610421565b60405180910390fd5b6040518060400160405280600f81526020017f596f752063616e277420766f74652100000000000000000000000000000000008152509050919050565b5f5481565b5f80fd5b5f819050919050565b61021781610205565b8114610221575f80fd5b50565b5f813590506102328161020e565b92915050565b5f6020828403121561024d5761024c610201565b5b5f61025a84828501610224565b91505092915050565b5f81519050919050565b5f82825260208201905092915050565b8281835e5f83830152505050565b5f601f19601f8301169050919050565b5f6102a582610263565b6102af818561026d565b93506102bf81856020860161027d565b6102c88161028b565b840191505092915050565b5f6020820190508181035f8301526102eb818461029b565b905092915050565b6102fc81610205565b82525050565b5f6020820190506103155f8301846102f3565b92915050565b5f60408201905061032e5f8301856102f3565b61033b60208301846102f3565b9392505050565b7f4e487b71000000000000000000000000000000000000000000000000000000005f52600160045260245ffd5b7f496e707574206d7573742062652067726561746572207468616e2035000000005f82015250565b5f6103a3601c8361026d565b91506103ae8261036f565b602082019050919050565b5f6020820190508181035f8301526103d081610397565b9050919050565b7f557365722069732061206d696e6f7200000000000000000000000000000000005f82015250565b5f61040b600f8361026d565b9150610416826103d7565b602082019050919050565b5f6020820190508181035f830152610438816103ff565b905091905056fea2646970667358221220f2a91dca9135fb2785d9fda4c00ddc6a033e33346fe323144059237569616b8f64736f6c634300081a0033",
					"opcodes": "PUSH1 0x80 PUSH1 0x40 MSTORE PUSH8 0xDE0B6B3A7640000 PUSH0 SSTORE CALLVALUE DUP1 ISZERO PUSH1 0x19 JUMPI PUSH0 DUP1 REVERT JUMPDEST POP PUSH2 0x475 DUP1 PUSH2 0x27 PUSH0 CODECOPY PUSH0 RETURN INVALID PUSH1 0x80 PUSH1 0x40 MSTORE CALLVALUE DUP1 ISZERO PUSH2 0xF JUMPI PUSH0 DUP1 REVERT JUMPDEST POP PUSH1 0x4 CALLDATASIZE LT PUSH2 0x4A JUMPI PUSH0 CALLDATALOAD PUSH1 0xE0 SHR DUP1 PUSH4 0x2509F77C EQ PUSH2 0x4E JUMPI DUP1 PUSH4 0x623BCB7B EQ PUSH2 0x6A JUMPI DUP1 PUSH4 0xB7BB2967 EQ PUSH2 0x86 JUMPI DUP1 PUSH4 0xBF152765 EQ PUSH2 0xB6 JUMPI JUMPDEST PUSH0 DUP1 REVERT JUMPDEST PUSH2 0x68 PUSH1 0x4 DUP1 CALLDATASIZE SUB DUP2 ADD SWAP1 PUSH2 0x63 SWAP2 SWAP1 PUSH2 0x238 JUMP JUMPDEST PUSH2 0xD4 JUMP JUMPDEST STOP JUMPDEST PUSH2 0x84 PUSH1 0x4 DUP1 CALLDATASIZE SUB DUP2 ADD SWAP1 PUSH2 0x7F SWAP2 SWAP1 PUSH2 0x238 JUMP JUMPDEST PUSH2 0x123 JUMP JUMPDEST STOP JUMPDEST PUSH2 0xA0 PUSH1 0x4 DUP1 CALLDATASIZE SUB DUP2 ADD SWAP1 PUSH2 0x9B SWAP2 SWAP1 PUSH2 0x238 JUMP JUMPDEST PUSH2 0x179 JUMP JUMPDEST PUSH1 0x40 MLOAD PUSH2 0xAD SWAP2 SWAP1 PUSH2 0x2D3 JUMP JUMPDEST PUSH1 0x40 MLOAD DUP1 SWAP2 SUB SWAP1 RETURN JUMPDEST PUSH2 0xBE PUSH2 0x1FC JUMP JUMPDEST PUSH1 0x40 MLOAD PUSH2 0xCB SWAP2 SWAP1 PUSH2 0x302 JUMP JUMPDEST PUSH1 0x40 MLOAD DUP1 SWAP2 SUB SWAP1 RETURN JUMPDEST PUSH0 SELFBALANCE SWAP1 POP DUP2 DUP2 LT ISZERO PUSH2 0x11F JUMPI DUP1 DUP3 PUSH1 0x40 MLOAD PUSH32 0xCF47918100000000000000000000000000000000000000000000000000000000 DUP2 MSTORE PUSH1 0x4 ADD PUSH2 0x116 SWAP3 SWAP2 SWAP1 PUSH2 0x31B JUMP JUMPDEST PUSH1 0x40 MLOAD DUP1 SWAP2 SUB SWAP1 REVERT JUMPDEST POP POP JUMP JUMPDEST PUSH0 DUP2 SUB PUSH2 0x133 JUMPI PUSH2 0x132 PUSH2 0x342 JUMP JUMPDEST JUMPDEST PUSH1 0x5 DUP2 GT PUSH2 0x176 JUMPI PUSH1 0x40 MLOAD PUSH32 0x8C379A000000000000000000000000000000000000000000000000000000000 DUP2 MSTORE PUSH1 0x4 ADD PUSH2 0x16D SWAP1 PUSH2 0x3B9 JUMP JUMPDEST PUSH1 0x40 MLOAD DUP1 SWAP2 SUB SWAP1 REVERT JUMPDEST POP JUMP JUMPDEST PUSH1 0x60 PUSH1 0x12 DUP3 LT ISZERO PUSH2 0x1BF JUMPI PUSH1 0x40 MLOAD PUSH32 0x8C379A000000000000000000000000000000000000000000000000000000000 DUP2 MSTORE PUSH1 0x4 ADD PUSH2 0x1B6 SWAP1 PUSH2 0x421 JUMP JUMPDEST PUSH1 0x40 MLOAD DUP1 SWAP2 SUB SWAP1 REVERT JUMPDEST PUSH1 0x40 MLOAD DUP1 PUSH1 0x40 ADD PUSH1 0x40 MSTORE DUP1 PUSH1 0xF DUP2 MSTORE PUSH1 0x20 ADD PUSH32 0x596F752063616E277420766F7465210000000000000000000000000000000000 DUP2 MSTORE POP SWAP1 POP SWAP2 SWAP1 POP JUMP JUMPDEST PUSH0 SLOAD DUP2 JUMP JUMPDEST PUSH0 DUP1 REVERT JUMPDEST PUSH0 DUP2 SWAP1 POP SWAP2 SWAP1 POP JUMP JUMPDEST PUSH2 0x217 DUP2 PUSH2 0x205 JUMP JUMPDEST DUP2 EQ PUSH2 0x221 JUMPI PUSH0 DUP1 REVERT JUMPDEST POP JUMP JUMPDEST PUSH0 DUP2 CALLDATALOAD SWAP1 POP PUSH2 0x232 DUP2 PUSH2 0x20E JUMP JUMPDEST SWAP3 SWAP2 POP POP JUMP JUMPDEST PUSH0 PUSH1 0x20 DUP3 DUP5 SUB SLT ISZERO PUSH2 0x24D JUMPI PUSH2 0x24C PUSH2 0x201 JUMP JUMPDEST JUMPDEST PUSH0 PUSH2 0x25A DUP5 DUP3 DUP6 ADD PUSH2 0x224 JUMP JUMPDEST SWAP2 POP POP SWAP3 SWAP2 POP POP JUMP JUMPDEST PUSH0 DUP2 MLOAD SWAP1 POP SWAP2 SWAP1 POP JUMP JUMPDEST PUSH0 DUP3 DUP3 MSTORE PUSH1 0x20 DUP3 ADD SWAP1 POP SWAP3 SWAP2 POP POP JUMP JUMPDEST DUP3 DUP2 DUP4 MCOPY PUSH0 DUP4 DUP4 ADD MSTORE POP POP POP JUMP JUMPDEST PUSH0 PUSH1 0x1F NOT PUSH1 0x1F DUP4 ADD AND SWAP1 POP SWAP2 SWAP1 POP JUMP JUMPDEST PUSH0 PUSH2 0x2A5 DUP3 PUSH2 0x263 JUMP JUMPDEST PUSH2 0x2AF DUP2 DUP6 PUSH2 0x26D JUMP JUMPDEST SWAP4 POP PUSH2 0x2BF DUP2 DUP6 PUSH1 0x20 DUP7 ADD PUSH2 0x27D JUMP JUMPDEST PUSH2 0x2C8 DUP2 PUSH2 0x28B JUMP JUMPDEST DUP5 ADD SWAP2 POP POP SWAP3 SWAP2 POP POP JUMP JUMPDEST PUSH0 PUSH1 0x20 DUP3 ADD SWAP1 POP DUP2 DUP2 SUB PUSH0 DUP4 ADD MSTORE PUSH2 0x2EB DUP2 DUP5 PUSH2 0x29B JUMP JUMPDEST SWAP1 POP SWAP3 SWAP2 POP POP JUMP JUMPDEST PUSH2 0x2FC DUP2 PUSH2 0x205 JUMP JUMPDEST DUP3 MSTORE POP POP JUMP JUMPDEST PUSH0 PUSH1 0x20 DUP3 ADD SWAP1 POP PUSH2 0x315 PUSH0 DUP4 ADD DUP5 PUSH2 0x2F3 JUMP JUMPDEST SWAP3 SWAP2 POP POP JUMP JUMPDEST PUSH0 PUSH1 0x40 DUP3 ADD SWAP1 POP PUSH2 0x32E PUSH0 DUP4 ADD DUP6 PUSH2 0x2F3 JUMP JUMPDEST PUSH2 0x33B PUSH1 0x20 DUP4 ADD DUP5 PUSH2 0x2F3 JUMP JUMPDEST SWAP4 SWAP3 POP POP POP JUMP JUMPDEST PUSH32 0x4E487B7100000000000000000000000000000000000000000000000000000000 PUSH0 MSTORE PUSH1 0x1 PUSH1 0x4 MSTORE PUSH1 0x24 PUSH0 REVERT JUMPDEST PUSH32 0x496E707574206D7573742062652067726561746572207468616E203500000000 PUSH0 DUP3 ADD MSTORE POP JUMP JUMPDEST PUSH0 PUSH2 0x3A3 PUSH1 0x1C DUP4 PUSH2 0x26D JUMP JUMPDEST SWAP2 POP PUSH2 0x3AE DUP3 PUSH2 0x36F JUMP JUMPDEST PUSH1 0x20 DUP3 ADD SWAP1 POP SWAP2 SWAP1 POP JUMP JUMPDEST PUSH0 PUSH1 0x20 DUP3 ADD SWAP1 POP DUP2 DUP2 SUB PUSH0 DUP4 ADD MSTORE PUSH2 0x3D0 DUP2 PUSH2 0x397 JUMP JUMPDEST SWAP1 POP SWAP2 SWAP1 POP JUMP JUMPDEST PUSH32 0x557365722069732061206D696E6F720000000000000000000000000000000000 PUSH0 DUP3 ADD MSTORE POP JUMP JUMPDEST PUSH0 PUSH2 0x40B PUSH1 0xF DUP4 PUSH2 0x26D JUMP JUMPDEST SWAP2 POP PUSH2 0x416 DUP3 PUSH2 0x3D7 JUMP JUMPDEST PUSH1 0x20 DUP3 ADD SWAP1 POP SWAP2 SWAP1 POP JUMP JUMPDEST PUSH0 PUSH1 0x20 DUP3 ADD SWAP1 POP DUP2 DUP2 SUB PUSH0 DUP4 ADD MSTORE PUSH2 0x438 DUP2 PUSH2 0x3FF JUMP JUMPDEST SWAP1 POP SWAP2 SWAP1 POP JUMP INVALID LOG2 PUSH5 0x6970667358 0x22 SLT KECCAK256 CALLCODE 0xA9 SAR 0xCA SWAP2 CALLDATALOAD 0xFB 0x27 DUP6 0xD9 REVERT LOG4 0xC0 0xD 0xDC PUSH11 0x33E33346FE32314405923 PUSH22 0x69616B8F64736F6C634300081A003300000000000000 "
				},
				"gasEstimates": {
					"creation": {
						"codeDepositCost": "228200",
						"executionCost": "22372",
						"totalCost": "250572"
					},
					"external": {
						"customError(uint256)": "infinite",
						"req(uint256)": "infinite",
						"rev(uint256)": "728",
						"userBalance()": "2468"
					}
				},
				"methodIdentifiers": {
					"customError(uint256)": "2509f77c",
					"req(uint256)": "b7bb2967",
					"rev(uint256)": "623bcb7b",
					"userBalance()": "bf152765"
				}
			},
			"storageLayout": {
				"storage": [
					{
						"astId": 4,
						"contract": "contracts/delta.sol:Delta",
						"label": "userBalance",
						"offset": 0,
						"slot": "0",
						"type": "t_uint256"
					}
				],
				"types": {
					"t_uint256": {
						"encoding": "inplace",
						"label": "uint256",
						"numberOfBytes": "32"
					}
				}
			},
			"userdoc": {
				"kind": "user",
				"methods": {},
				"version": 1
			}
		}
	}
}