{
	"contracts/alpha.sol": {
		"Alpha": {
			"abi": [
				{
					"inputs": [],
					"stateMutability": "nonpayable",
					"type": "constructor"
				},
				{
					"inputs": [],
					"name": "NAME",
					"outputs": [
						{
							"internalType": "string",
							"name": "",
							"type": "string"
						}
					],
					"stateMutability": "view",
					"type": "function"
				},
				{
					"inputs": [],
					"name": "decrement",
					"outputs": [],
					"stateMutability": "nonpayable",
					"type": "function"
				},
				{
					"inputs": [],
					"name": "favouriteNumber",
					"outputs": [
						{
							"internalType": "uint256",
							"name": "",
							"type": "uint256"
						}
					],
					"stateMutability": "view",
					"type": "function"
				},
				{
					"inputs": [],
					"name": "get",
					"outputs": [
						{
							"internalType": "uint256",
							"name": "",
							"type": "uint256"
						}
					],
					"stateMutability": "view",
					"type": "function"
				},
				{
					"inputs": [],
					"name": "increment",
					"outputs": [],
					"stateMutability": "nonpayable",
					"type": "function"
				},
				{
					"inputs": [],
					"name": "myAddress",
					"outputs": [
						{
							"internalType": "address",
							"name": "",
							"type": "address"
						}
					],
					"stateMutability": "view",
					"type": "function"
				}
			],
			"devdoc": {
				"kind": "dev",
				"methods": {},
				"version": 1
			},
			"evm": {
				"assembly": "    /* \"contracts/alpha.sol\":61:656  contract Alpha {... */\n  mstore(0x40, 0xa0)\n    /* \"contracts/alpha.sol\":160:161  9 */\n  0x09\n    /* \"contracts/alpha.sol\":127:161  uint256 public favouriteNumber = 9 */\n  0x00\n  sstore\n    /* \"contracts/alpha.sol\":211:267  constructor () {... */\n  callvalue\n  dup1\n  iszero\n  tag_1\n  jumpi\n  0x00\n  dup1\n  revert\ntag_1:\n  pop\n    /* \"contracts/alpha.sol\":249:259  msg.sender */\n  caller\n    /* \"contracts/alpha.sol\":237:259  myAddress = msg.sender */\n  0xffffffffffffffffffffffffffffffffffffffff\n  and\n  0x80\n  dup2\n  0xffffffffffffffffffffffffffffffffffffffff\n  and\n  dup2\n  mstore\n  pop\n  pop\n    /* \"contracts/alpha.sol\":61:656  contract Alpha {... */\n  mload(0x80)\n  codecopy(0x00, dataOffset(sub_0), dataSize(sub_0))\n  0x00\n  assignImmutable(\"0xd2f8f61201b2b11a78d6e866abc9c3db2ae8631fa656bfe5cb53668255367afb\")\n  return(0x00, dataSize(sub_0))\nstop\n\nsub_0: assembly {\n        /* \"contracts/alpha.sol\":61:656  contract Alpha {... */\n      mstore(0x40, 0x80)\n      callvalue\n      dup1\n      iszero\n      tag_1\n      jumpi\n      0x00\n      dup1\n      revert\n    tag_1:\n      pop\n      jumpi(tag_2, lt(calldatasize, 0x04))\n      shr(0xe0, calldataload(0x00))\n      dup1\n      0x26b85ee1\n      eq\n      tag_3\n      jumpi\n      dup1\n      0x2baeceb7\n      eq\n      tag_4\n      jumpi\n      dup1\n      0x43ede4ae\n      eq\n      tag_5\n      jumpi\n      dup1\n      0x6d4ce63c\n      eq\n      tag_6\n      jumpi\n      dup1\n      0xa3f4df7e\n      eq\n      tag_7\n      jumpi\n      dup1\n      0xd09de08a\n      eq\n      tag_8\n      jumpi\n    tag_2:\n      0x00\n      dup1\n      revert\n        /* \"contracts/alpha.sol\":168:202  address public immutable myAddress */\n    tag_3:\n      tag_9\n      tag_10\n      jump\t// in\n    tag_9:\n      mload(0x40)\n      tag_11\n      swap2\n      swap1\n      tag_12\n      jump\t// in\n    tag_11:\n      mload(0x40)\n      dup1\n      swap2\n      sub\n      swap1\n      return\n        /* \"contracts/alpha.sol\":472:549  function decrement() public nullCheck {... */\n    tag_4:\n      tag_13\n      tag_14\n      jump\t// in\n    tag_13:\n      stop\n        /* \"contracts/alpha.sol\":127:161  uint256 public favouriteNumber = 9 */\n    tag_5:\n      tag_15\n      tag_16\n      jump\t// in\n    tag_15:\n      mload(0x40)\n      tag_17\n      swap2\n      swap1\n      tag_18\n      jump\t// in\n    tag_17:\n      mload(0x40)\n      dup1\n      swap2\n      sub\n      swap1\n      return\n        /* \"contracts/alpha.sol\":303:389  function get() public view returns (uint256) {... */\n    tag_6:\n      tag_19\n      tag_20\n      jump\t// in\n    tag_19:\n      mload(0x40)\n      tag_21\n      swap2\n      swap1\n      tag_18\n      jump\t// in\n    tag_21:\n      mload(0x40)\n      dup1\n      swap2\n      sub\n      swap1\n      return\n        /* \"contracts/alpha.sol\":83:120  string constant public NAME = \"Mylez\" */\n    tag_7:\n      tag_22\n      tag_23\n      jump\t// in\n    tag_22:\n      mload(0x40)\n      tag_24\n      swap2\n      swap1\n      tag_25\n      jump\t// in\n    tag_24:\n      mload(0x40)\n      dup1\n      swap2\n      sub\n      swap1\n      return\n        /* \"contracts/alpha.sol\":397:464  function increment() public {... */\n    tag_8:\n      tag_26\n      tag_27\n      jump\t// in\n    tag_26:\n      stop\n        /* \"contracts/alpha.sol\":168:202  address public immutable myAddress */\n    tag_10:\n      immutable(\"0xd2f8f61201b2b11a78d6e866abc9c3db2ae8631fa656bfe5cb53668255367afb\")\n      dup2\n      jump\t// out\n        /* \"contracts/alpha.sol\":472:549  function decrement() public nullCheck {... */\n    tag_14:\n        /* \"contracts/alpha.sol\":614:615  0 */\n      0x00\n        /* \"contracts/alpha.sol\":595:610  favouriteNumber */\n      dup1\n      sload\n        /* \"contracts/alpha.sol\":595:615  favouriteNumber != 0 */\n      sub\n        /* \"contracts/alpha.sol\":587:631  require(favouriteNumber != 0, \"Number is 0\") */\n      tag_29\n      jumpi\n      mload(0x40)\n      0x08c379a000000000000000000000000000000000000000000000000000000000\n      dup2\n      mstore\n      0x04\n      add\n      tag_30\n      swap1\n      tag_31\n      jump\t// in\n    tag_30:\n      mload(0x40)\n      dup1\n      swap2\n      sub\n      swap1\n      revert\n    tag_29:\n        /* \"contracts/alpha.sol\":540:541  1 */\n      0x01\n        /* \"contracts/alpha.sol\":521:536  favouriteNumber */\n      0x00\n      dup1\n        /* \"contracts/alpha.sol\":521:541  favouriteNumber -= 1 */\n      dup3\n      dup3\n      sload\n      tag_33\n      swap2\n      swap1\n      tag_34\n      jump\t// in\n    tag_33:\n      swap3\n      pop\n      pop\n      dup2\n      swap1\n      sstore\n      pop\n        /* \"contracts/alpha.sol\":472:549  function decrement() public nullCheck {... */\n      jump\t// out\n        /* \"contracts/alpha.sol\":127:161  uint256 public favouriteNumber = 9 */\n    tag_16:\n      sload(0x00)\n      dup2\n      jump\t// out\n        /* \"contracts/alpha.sol\":303:389  function get() public view returns (uint256) {... */\n    tag_20:\n        /* \"contracts/alpha.sol\":339:346  uint256 */\n      0x00\n        /* \"contracts/alpha.sol\":366:381  favouriteNumber */\n      dup1\n      sload\n        /* \"contracts/alpha.sol\":359:381  return favouriteNumber */\n      swap1\n      pop\n        /* \"contracts/alpha.sol\":303:389  function get() public view returns (uint256) {... */\n      swap1\n      jump\t// out\n        /* \"contracts/alpha.sol\":83:120  string constant public NAME = \"Mylez\" */\n    tag_23:\n      mload(0x40)\n      dup1\n      0x40\n      add\n      0x40\n      mstore\n      dup1\n      0x05\n      dup2\n      mstore\n      0x20\n      add\n      0x4d796c657a000000000000000000000000000000000000000000000000000000\n      dup2\n      mstore\n      pop\n      dup2\n      jump\t// out\n        /* \"contracts/alpha.sol\":397:464  function increment() public {... */\n    tag_27:\n        /* \"contracts/alpha.sol\":455:456  1 */\n      0x01\n        /* \"contracts/alpha.sol\":436:451  favouriteNumber */\n      0x00\n      dup1\n        /* \"contracts/alpha.sol\":436:456  favouriteNumber += 1 */\n      dup3\n      dup3\n      sload\n      tag_37\n      swap2\n      swap1\n      tag_38\n      jump\t// in\n    tag_37:\n      swap3\n      pop\n      pop\n      dup2\n      swap1\n      sstore\n      pop\n        /* \"contracts/alpha.sol\":397:464  function increment() public {... */\n      jump\t// out\n        /* \"#utility.yul\":7:133   */\n    tag_39:\n        /* \"#utility.yul\":44:51   */\n      0x00\n        /* \"#utility.yul\":84:126   */\n      0xffffffffffffffffffffffffffffffffffffffff\n        /* \"#utility.yul\":77:82   */\n      dup3\n        /* \"#utility.yul\":73:127   */\n      and\n        /* \"#utility.yul\":62:127   */\n      swap1\n      pop\n        /* \"#utility.yul\":7:133   */\n      swap2\n      swap1\n      pop\n      jump\t// out\n        /* \"#utility.yul\":139:235   */\n    tag_40:\n        /* \"#utility.yul\":176:183   */\n      0x00\n        /* \"#utility.yul\":205:229   */\n      tag_55\n        /* \"#utility.yul\":223:228   */\n      dup3\n        /* \"#utility.yul\":205:229   */\n      tag_39\n      jump\t// in\n    tag_55:\n        /* \"#utility.yul\":194:229   */\n      swap1\n      pop\n        /* \"#utility.yul\":139:235   */\n      swap2\n      swap1\n      pop\n      jump\t// out\n        /* \"#utility.yul\":241:359   */\n    tag_41:\n        /* \"#utility.yul\":328:352   */\n      tag_57\n        /* \"#utility.yul\":346:351   */\n      dup2\n        /* \"#utility.yul\":328:352   */\n      tag_40\n      jump\t// in\n    tag_57:\n        /* \"#utility.yul\":323:326   */\n      dup3\n        /* \"#utility.yul\":316:353   */\n      mstore\n        /* \"#utility.yul\":241:359   */\n      pop\n      pop\n      jump\t// out\n        /* \"#utility.yul\":365:587   */\n    tag_12:\n        /* \"#utility.yul\":458:462   */\n      0x00\n        /* \"#utility.yul\":496:498   */\n      0x20\n        /* \"#utility.yul\":485:494   */\n      dup3\n        /* \"#utility.yul\":481:499   */\n      add\n        /* \"#utility.yul\":473:499   */\n      swap1\n      pop\n        /* \"#utility.yul\":509:580   */\n      tag_59\n        /* \"#utility.yul\":577:578   */\n      0x00\n        /* \"#utility.yul\":566:575   */\n      dup4\n        /* \"#utility.yul\":562:579   */\n      add\n        /* \"#utility.yul\":553:559   */\n      dup5\n        /* \"#utility.yul\":509:580   */\n      tag_41\n      jump\t// in\n    tag_59:\n        /* \"#utility.yul\":365:587   */\n      swap3\n      swap2\n      pop\n      pop\n      jump\t// out\n        /* \"#utility.yul\":593:670   */\n    tag_42:\n        /* \"#utility.yul\":630:637   */\n      0x00\n        /* \"#utility.yul\":659:664   */\n      dup2\n        /* \"#utility.yul\":648:664   */\n      swap1\n      pop\n        /* \"#utility.yul\":593:670   */\n      swap2\n      swap1\n      pop\n      jump\t// out\n        /* \"#utility.yul\":676:794   */\n    tag_43:\n        /* \"#utility.yul\":763:787   */\n      tag_62\n        /* \"#utility.yul\":781:786   */\n      dup2\n        /* \"#utility.yul\":763:787   */\n      tag_42\n      jump\t// in\n    tag_62:\n        /* \"#utility.yul\":758:761   */\n      dup3\n        /* \"#utility.yul\":751:788   */\n      mstore\n        /* \"#utility.yul\":676:794   */\n      pop\n      pop\n      jump\t// out\n        /* \"#utility.yul\":800:1022   */\n    tag_18:\n        /* \"#utility.yul\":893:897   */\n      0x00\n        /* \"#utility.yul\":931:933   */\n      0x20\n        /* \"#utility.yul\":920:929   */\n      dup3\n        /* \"#utility.yul\":916:934   */\n      add\n        /* \"#utility.yul\":908:934   */\n      swap1\n      pop\n        /* \"#utility.yul\":944:1015   */\n      tag_64\n        /* \"#utility.yul\":1012:1013   */\n      0x00\n        /* \"#utility.yul\":1001:1010   */\n      dup4\n        /* \"#utility.yul\":997:1014   */\n      add\n        /* \"#utility.yul\":988:994   */\n      dup5\n        /* \"#utility.yul\":944:1015   */\n      tag_43\n      jump\t// in\n    tag_64:\n        /* \"#utility.yul\":800:1022   */\n      swap3\n      swap2\n      pop\n      pop\n      jump\t// out\n        /* \"#utility.yul\":1028:1127   */\n    tag_44:\n        /* \"#utility.yul\":1080:1086   */\n      0x00\n        /* \"#utility.yul\":1114:1119   */\n      dup2\n        /* \"#utility.yul\":1108:1120   */\n      mload\n        /* \"#utility.yul\":1098:1120   */\n      swap1\n      pop\n        /* \"#utility.yul\":1028:1127   */\n      swap2\n      swap1\n      pop\n      jump\t// out\n        /* \"#utility.yul\":1133:1302   */\n    tag_45:\n        /* \"#utility.yul\":1217:1228   */\n      0x00\n        /* \"#utility.yul\":1251:1257   */\n      dup3\n        /* \"#utility.yul\":1246:1249   */\n      dup3\n        /* \"#utility.yul\":1239:1258   */\n      mstore\n        /* \"#utility.yul\":1291:1295   */\n      0x20\n        /* \"#utility.yul\":1286:1289   */\n      dup3\n        /* \"#utility.yul\":1282:1296   */\n      add\n        /* \"#utility.yul\":1267:1296   */\n      swap1\n      pop\n        /* \"#utility.yul\":1133:1302   */\n      swap3\n      swap2\n      pop\n      pop\n      jump\t// out\n        /* \"#utility.yul\":1308:1447   */\n    tag_46:\n        /* \"#utility.yul\":1397:1403   */\n      dup3\n        /* \"#utility.yul\":1392:1395   */\n      dup2\n        /* \"#utility.yul\":1387:1390   */\n      dup4\n        /* \"#utility.yul\":1381:1404   */\n      mcopy\n        /* \"#utility.yul\":1438:1439   */\n      0x00\n        /* \"#utility.yul\":1429:1435   */\n      dup4\n        /* \"#utility.yul\":1424:1427   */\n      dup4\n        /* \"#utility.yul\":1420:1436   */\n      add\n        /* \"#utility.yul\":1413:1440   */\n      mstore\n        /* \"#utility.yul\":1308:1447   */\n      pop\n      pop\n      pop\n      jump\t// out\n        /* \"#utility.yul\":1453:1555   */\n    tag_47:\n        /* \"#utility.yul\":1494:1500   */\n      0x00\n        /* \"#utility.yul\":1545:1547   */\n      0x1f\n        /* \"#utility.yul\":1541:1548   */\n      not\n        /* \"#utility.yul\":1536:1538   */\n      0x1f\n        /* \"#utility.yul\":1529:1534   */\n      dup4\n        /* \"#utility.yul\":1525:1539   */\n      add\n        /* \"#utility.yul\":1521:1549   */\n      and\n        /* \"#utility.yul\":1511:1549   */\n      swap1\n      pop\n        /* \"#utility.yul\":1453:1555   */\n      swap2\n      swap1\n      pop\n      jump\t// out\n        /* \"#utility.yul\":1561:1938   */\n    tag_48:\n        /* \"#utility.yul\":1649:1652   */\n      0x00\n        /* \"#utility.yul\":1677:1716   */\n      tag_70\n        /* \"#utility.yul\":1710:1715   */\n      dup3\n        /* \"#utility.yul\":1677:1716   */\n      tag_44\n      jump\t// in\n    tag_70:\n        /* \"#utility.yul\":1732:1803   */\n      tag_71\n        /* \"#utility.yul\":1796:1802   */\n      dup2\n        /* \"#utility.yul\":1791:1794   */\n      dup6\n        /* \"#utility.yul\":1732:1803   */\n      tag_45\n      jump\t// in\n    tag_71:\n        /* \"#utility.yul\":1725:1803   */\n      swap4\n      pop\n        /* \"#utility.yul\":1812:1877   */\n      tag_72\n        /* \"#utility.yul\":1870:1876   */\n      dup2\n        /* \"#utility.yul\":1865:1868   */\n      dup6\n        /* \"#utility.yul\":1858:1862   */\n      0x20\n        /* \"#utility.yul\":1851:1856   */\n      dup7\n        /* \"#utility.yul\":1847:1863   */\n      add\n        /* \"#utility.yul\":1812:1877   */\n      tag_46\n      jump\t// in\n    tag_72:\n        /* \"#utility.yul\":1902:1931   */\n      tag_73\n        /* \"#utility.yul\":1924:1930   */\n      dup2\n        /* \"#utility.yul\":1902:1931   */\n      tag_47\n      jump\t// in\n    tag_73:\n        /* \"#utility.yul\":1897:1900   */\n      dup5\n        /* \"#utility.yul\":1893:1932   */\n      add\n        /* \"#utility.yul\":1886:1932   */\n      swap2\n      pop\n        /* \"#utility.yul\":1653:1938   */\n      pop\n        /* \"#utility.yul\":1561:1938   */\n      swap3\n      swap2\n      pop\n      pop\n      jump\t// out\n        /* \"#utility.yul\":1944:2257   */\n    tag_25:\n        /* \"#utility.yul\":2057:2061   */\n      0x00\n        /* \"#utility.yul\":2095:2097   */\n      0x20\n        /* \"#utility.yul\":2084:2093   */\n      dup3\n        /* \"#utility.yul\":2080:2098   */\n      add\n        /* \"#utility.yul\":2072:2098   */\n      swap1\n      pop\n        /* \"#utility.yul\":2144:2153   */\n      dup2\n        /* \"#utility.yul\":2138:2142   */\n      dup2\n        /* \"#utility.yul\":2134:2154   */\n      sub\n        /* \"#utility.yul\":2130:2131   */\n      0x00\n        /* \"#utility.yul\":2119:2128   */\n      dup4\n        /* \"#utility.yul\":2115:2132   */\n      add\n        /* \"#utility.yul\":2108:2155   */\n      mstore\n        /* \"#utility.yul\":2172:2250   */\n      tag_75\n        /* \"#utility.yul\":2245:2249   */\n      dup2\n        /* \"#utility.yul\":2236:2242   */\n      dup5\n        /* \"#utility.yul\":2172:2250   */\n      tag_48\n      jump\t// in\n    tag_75:\n        /* \"#utility.yul\":2164:2250   */\n      swap1\n      pop\n        /* \"#utility.yul\":1944:2257   */\n      swap3\n      swap2\n      pop\n      pop\n      jump\t// out\n        /* \"#utility.yul\":2263:2424   */\n    tag_49:\n        /* \"#utility.yul\":2403:2416   */\n      0x4e756d6265722069732030000000000000000000000000000000000000000000\n        /* \"#utility.yul\":2399:2400   */\n      0x00\n        /* \"#utility.yul\":2391:2397   */\n      dup3\n        /* \"#utility.yul\":2387:2401   */\n      add\n        /* \"#utility.yul\":2380:2417   */\n      mstore\n        /* \"#utility.yul\":2263:2424   */\n      pop\n      jump\t// out\n        /* \"#utility.yul\":2430:2796   */\n    tag_50:\n        /* \"#utility.yul\":2572:2575   */\n      0x00\n        /* \"#utility.yul\":2593:2660   */\n      tag_78\n        /* \"#utility.yul\":2657:2659   */\n      0x0b\n        /* \"#utility.yul\":2652:2655   */\n      dup4\n        /* \"#utility.yul\":2593:2660   */\n      tag_45\n      jump\t// in\n    tag_78:\n        /* \"#utility.yul\":2586:2660   */\n      swap2\n      pop\n        /* \"#utility.yul\":2669:2762   */\n      tag_79\n        /* \"#utility.yul\":2758:2761   */\n      dup3\n        /* \"#utility.yul\":2669:2762   */\n      tag_49\n      jump\t// in\n    tag_79:\n        /* \"#utility.yul\":2787:2789   */\n      0x20\n        /* \"#utility.yul\":2782:2785   */\n      dup3\n        /* \"#utility.yul\":2778:2790   */\n      add\n        /* \"#utility.yul\":2771:2790   */\n      swap1\n      pop\n        /* \"#utility.yul\":2430:2796   */\n      swap2\n      swap1\n      pop\n      jump\t// out\n        /* \"#utility.yul\":2802:3221   */\n    tag_31:\n        /* \"#utility.yul\":2968:2972   */\n      0x00\n        /* \"#utility.yul\":3006:3008   */\n      0x20\n        /* \"#utility.yul\":2995:3004   */\n      dup3\n        /* \"#utility.yul\":2991:3009   */\n      add\n        /* \"#utility.yul\":2983:3009   */\n      swap1\n      pop\n        /* \"#utility.yul\":3055:3064   */\n      dup2\n        /* \"#utility.yul\":3049:3053   */\n      dup2\n        /* \"#utility.yul\":3045:3065   */\n      sub\n        /* \"#utility.yul\":3041:3042   */\n      0x00\n        /* \"#utility.yul\":3030:3039   */\n      dup4\n        /* \"#utility.yul\":3026:3043   */\n      add\n        /* \"#utility.yul\":3019:3066   */\n      mstore\n        /* \"#utility.yul\":3083:3214   */\n      tag_81\n        /* \"#utility.yul\":3209:3213   */\n      dup2\n        /* \"#utility.yul\":3083:3214   */\n      tag_50\n      jump\t// in\n    tag_81:\n        /* \"#utility.yul\":3075:3214   */\n      swap1\n      pop\n        /* \"#utility.yul\":2802:3221   */\n      swap2\n      swap1\n      pop\n      jump\t// out\n        /* \"#utility.yul\":3227:3407   */\n    tag_51:\n        /* \"#utility.yul\":3275:3352   */\n      0x4e487b7100000000000000000000000000000000000000000000000000000000\n        /* \"#utility.yul\":3272:3273   */\n      0x00\n        /* \"#utility.yul\":3265:3353   */\n      mstore\n        /* \"#utility.yul\":3372:3376   */\n      0x11\n        /* \"#utility.yul\":3369:3370   */\n      0x04\n        /* \"#utility.yul\":3362:3377   */\n      mstore\n        /* \"#utility.yul\":3396:3400   */\n      0x24\n        /* \"#utility.yul\":3393:3394   */\n      0x00\n        /* \"#utility.yul\":3386:3401   */\n      revert\n        /* \"#utility.yul\":3413:3607   */\n    tag_34:\n        /* \"#utility.yul\":3453:3457   */\n      0x00\n        /* \"#utility.yul\":3473:3493   */\n      tag_84\n        /* \"#utility.yul\":3491:3492   */\n      dup3\n        /* \"#utility.yul\":3473:3493   */\n      tag_42\n      jump\t// in\n    tag_84:\n        /* \"#utility.yul\":3468:3493   */\n      swap2\n      pop\n        /* \"#utility.yul\":3507:3527   */\n      tag_85\n        /* \"#utility.yul\":3525:3526   */\n      dup4\n        /* \"#utility.yul\":3507:3527   */\n      tag_42\n      jump\t// in\n    tag_85:\n        /* \"#utility.yul\":3502:3527   */\n      swap3\n      pop\n        /* \"#utility.yul\":3551:3552   */\n      dup3\n        /* \"#utility.yul\":3548:3549   */\n      dup3\n        /* \"#utility.yul\":3544:3553   */\n      sub\n        /* \"#utility.yul\":3536:3553   */\n      swap1\n      pop\n        /* \"#utility.yul\":3575:3576   */\n      dup2\n        /* \"#utility.yul\":3569:3573   */\n      dup2\n        /* \"#utility.yul\":3566:3577   */\n      gt\n        /* \"#utility.yul\":3563:3600   */\n      iszero\n      tag_86\n      jumpi\n        /* \"#utility.yul\":3580:3598   */\n      tag_87\n      tag_51\n      jump\t// in\n    tag_87:\n        /* \"#utility.yul\":3563:3600   */\n    tag_86:\n        /* \"#utility.yul\":3413:3607   */\n      swap3\n      swap2\n      pop\n      pop\n      jump\t// out\n        /* \"#utility.yul\":3613:3804   */\n    tag_38:\n        /* \"#utility.yul\":3653:3656   */\n      0x00\n        /* \"#utility.yul\":3672:3692   */\n      tag_89\n        /* \"#utility.yul\":3690:3691   */\n      dup3\n        /* \"#utility.yul\":3672:3692   */\n      tag_42\n      jump\t// in\n    tag_89:\n        /* \"#utility.yul\":3667:3692   */\n      swap2\n      pop\n        /* \"#utility.yul\":3706:3726   */\n      tag_90\n        /* \"#utility.yul\":3724:3725   */\n      dup4\n        /* \"#utility.yul\":3706:3726   */\n      tag_42\n      jump\t// in\n    tag_90:\n        /* \"#utility.yul\":3701:3726   */\n      swap3\n      pop\n        /* \"#utility.yul\":3749:3750   */\n      dup3\n        /* \"#utility.yul\":3746:3747   */\n      dup3\n        /* \"#utility.yul\":3742:3751   */\n      add\n        /* \"#utility.yul\":3735:3751   */\n      swap1\n      pop\n        /* \"#utility.yul\":3770:3773   */\n      dup1\n        /* \"#utility.yul\":3767:3768   */\n      dup3\n        /* \"#utility.yul\":3764:3774   */\n      gt\n        /* \"#utility.yul\":3761:3797   */\n      iszero\n      tag_91\n      jumpi\n        /* \"#utility.yul\":3777:3795   */\n      tag_92\n      tag_51\n      jump\t// in\n    tag_92:\n        /* \"#utility.yul\":3761:3797   */\n    tag_91:\n        /* \"#utility.yul\":3613:3804   */\n      swap3\n      swap2\n      pop\n      pop\n      jump\t// out\n\n    auxdata: 0xa264697066735822122097f20ba581f9b84bf2778ecbbb643a698ed3c95f5691b73fe13568c3132d9a3264736f6c634300081a0033\n}\n",
				"bytecode": {
					"linkReferences": {},
					"object": "60a060405260095f553480156012575f80fd5b503373ffffffffffffffffffffffffffffffffffffffff1660808173ffffffffffffffffffffffffffffffffffffffff168152505060805161041b61005e5f395f60f2015261041b5ff3fe608060405234801561000f575f80fd5b5060043610610060575f3560e01c806326b85ee1146100645780632baeceb71461008257806343ede4ae1461008c5780636d4ce63c146100aa578063a3f4df7e146100c8578063d09de08a146100e6575b5f80fd5b61006c6100f0565b6040516100799190610210565b60405180910390f35b61008a610114565b005b610094610171565b6040516100a19190610241565b60405180910390f35b6100b2610176565b6040516100bf9190610241565b60405180910390f35b6100d061017e565b6040516100dd91906102ca565b60405180910390f35b6100ee6101b7565b005b7f000000000000000000000000000000000000000000000000000000000000000081565b5f805403610157576040517f08c379a000000000000000000000000000000000000000000000000000000000815260040161014e90610334565b60405180910390fd5b60015f80828254610168919061037f565b92505081905550565b5f5481565b5f8054905090565b6040518060400160405280600581526020017f4d796c657a00000000000000000000000000000000000000000000000000000081525081565b60015f808282546101c891906103b2565b92505081905550565b5f73ffffffffffffffffffffffffffffffffffffffff82169050919050565b5f6101fa826101d1565b9050919050565b61020a816101f0565b82525050565b5f6020820190506102235f830184610201565b92915050565b5f819050919050565b61023b81610229565b82525050565b5f6020820190506102545f830184610232565b92915050565b5f81519050919050565b5f82825260208201905092915050565b8281835e5f83830152505050565b5f601f19601f8301169050919050565b5f61029c8261025a565b6102a68185610264565b93506102b6818560208601610274565b6102bf81610282565b840191505092915050565b5f6020820190508181035f8301526102e28184610292565b905092915050565b7f4e756d62657220697320300000000000000000000000000000000000000000005f82015250565b5f61031e600b83610264565b9150610329826102ea565b602082019050919050565b5f6020820190508181035f83015261034b81610312565b9050919050565b7f4e487b71000000000000000000000000000000000000000000000000000000005f52601160045260245ffd5b5f61038982610229565b915061039483610229565b92508282039050818111156103ac576103ab610352565b5b92915050565b5f6103bc82610229565b91506103c783610229565b92508282019050808211156103df576103de610352565b5b9291505056fea264697066735822122097f20ba581f9b84bf2778ecbbb643a698ed3c95f5691b73fe13568c3132d9a3264736f6c634300081a0033",
					"opcodes": "PUSH1 0xA0 PUSH1 0x40 MSTORE PUSH1 0x9 PUSH0 SSTORE CALLVALUE DUP1 ISZERO PUSH1 0x12 JUMPI PUSH0 DUP1 REVERT JUMPDEST POP CALLER PUSH20 0xFFFFFFFFFFFFFFFFFFFFFFFFFFFFFFFFFFFFFFFF AND PUSH1 0x80 DUP2 PUSH20 0xFFFFFFFFFFFFFFFFFFFFFFFFFFFFFFFFFFFFFFFF AND DUP2 MSTORE POP POP PUSH1 0x80 MLOAD PUSH2 0x41B PUSH2 0x5E PUSH0 CODECOPY PUSH0 PUSH1 0xF2 ADD MSTORE PUSH2 0x41B PUSH0 RETURN INVALID PUSH1 0x80 PUSH1 0x40 MSTORE CALLVALUE DUP1 ISZERO PUSH2 0xF JUMPI PUSH0 DUP1 REVERT JUMPDEST POP PUSH1 0x4 CALLDATASIZE LT PUSH2 0x60 JUMPI PUSH0 CALLDATALOAD PUSH1 0xE0 SHR DUP1 PUSH4 0x26B85EE1 EQ PUSH2 0x64 JUMPI DUP1 PUSH4 0x2BAECEB7 EQ PUSH2 0x82 JUMPI DUP1 PUSH4 0x43EDE4AE EQ PUSH2 0x8C JUMPI DUP1 PUSH4 0x6D4CE63C EQ PUSH2 0xAA JUMPI DUP1 PUSH4 0xA3F4DF7E EQ PUSH2 0xC8 JUMPI DUP1 PUSH4 0xD09DE08A EQ PUSH2 0xE6 JUMPI JUMPDEST PUSH0 DUP1 REVERT JUMPDEST PUSH2 0x6C PUSH2 0xF0 JUMP JUMPDEST PUSH1 0x40 MLOAD PUSH2 0x79 SWAP2 SWAP1 PUSH2 0x210 JUMP JUMPDEST PUSH1 0x40 MLOAD DUP1 SWAP2 SUB SWAP1 RETURN JUMPDEST PUSH2 0x8A PUSH2 0x114 JUMP JUMPDEST STOP JUMPDEST PUSH2 0x94 PUSH2 0x171 JUMP JUMPDEST PUSH1 0x40 MLOAD PUSH2 0xA1 SWAP2 SWAP1 PUSH2 0x241 JUMP JUMPDEST PUSH1 0x40 MLOAD DUP1 SWAP2 SUB SWAP1 RETURN JUMPDEST PUSH2 0xB2 PUSH2 0x176 JUMP JUMPDEST PUSH1 0x40 MLOAD PUSH2 0xBF SWAP2 SWAP1 PUSH2 0x241 JUMP JUMPDEST PUSH1 0x40 MLOAD DUP1 SWAP2 SUB SWAP1 RETURN JUMPDEST PUSH2 0xD0 PUSH2 0x17E JUMP JUMPDEST PUSH1 0x40 MLOAD PUSH2 0xDD SWAP2 SWAP1 PUSH2 0x2CA JUMP JUMPDEST PUSH1 0x40 MLOAD DUP1 SWAP2 SUB SWAP1 RETURN JUMPDEST PUSH2 0xEE PUSH2 0x1B7 JUMP JUMPDEST STOP JUMPDEST PUSH32 0x0 DUP2 JUMP JUMPDEST PUSH0 DUP1 SLOAD SUB PUSH2 0x157 JUMPI PUSH1 0x40 MLOAD PUSH32 0x8C379A000000000000000000000000000000000000000000000000000000000 DUP2 MSTORE PUSH1 0x4 ADD PUSH2 0x14E SWAP1 PUSH2 0x334 JUMP JUMPDEST PUSH1 0x40 MLOAD DUP1 SWAP2 SUB SWAP1 REVERT JUMPDEST PUSH1 0x1 PUSH0 DUP1 DUP3 DUP3 SLOAD PUSH2 0x168 SWAP2 SWAP1 PUSH2 0x37F JUMP JUMPDEST SWAP3 POP POP DUP2 SWAP1 SSTORE POP JUMP JUMPDEST PUSH0 SLOAD DUP2 JUMP JUMPDEST PUSH0 DUP1 SLOAD SWAP1 POP SWAP1 JUMP JUMPDEST PUSH1 0x40 MLOAD DUP1 PUSH1 0x40 ADD PUSH1 0x40 MSTORE DUP1 PUSH1 0x5 DUP2 MSTORE PUSH1 0x20 ADD PUSH32 0x4D796C657A000000000000000000000000000000000000000000000000000000 DUP2 MSTORE POP DUP2 JUMP JUMPDEST PUSH1 0x1 PUSH0 DUP1 DUP3 DUP3 SLOAD PUSH2 0x1C8 SWAP2 SWAP1 PUSH2 0x3B2 JUMP JUMPDEST SWAP3 POP POP DUP2 SWAP1 SSTORE POP JUMP JUMPDEST PUSH0 PUSH20 0xFFFFFFFFFFFFFFFFFFFFFFFFFFFFFFFFFFFFFFFF DUP3 AND SWAP1 POP SWAP2 SWAP1 POP JUMP JUMPDEST PUSH0 PUSH2 0x1FA DUP3 PUSH2 0x1D1 JUMP JUMPDEST SWAP1 POP SWAP2 SWAP1 POP JUMP JUMPDEST PUSH2 0x20A DUP2 PUSH2 0x1F0 JUMP JUMPDEST DUP3 MSTORE POP POP JUMP JUMPDEST PUSH0 PUSH1 0x20 DUP3 ADD SWAP1 POP PUSH2 0x223 PUSH0 DUP4 ADD DUP5 PUSH2 0x201 JUMP JUMPDEST SWAP3 SWAP2 POP POP JUMP JUMPDEST PUSH0 DUP2 SWAP1 POP SWAP2 SWAP1 POP JUMP JUMPDEST PUSH2 0x23B DUP2 PUSH2 0x229 JUMP JUMPDEST DUP3 MSTORE POP POP JUMP JUMPDEST PUSH0 PUSH1 0x20 DUP3 ADD SWAP1 POP PUSH2 0x254 PUSH0 DUP4 ADD DUP5 PUSH2 0x232 JUMP JUMPDEST SWAP3 SWAP2 POP POP JUMP JUMPDEST PUSH0 DUP2 MLOAD SWAP1 POP SWAP2 SWAP1 POP JUMP JUMPDEST PUSH0 DUP3 DUP3 MSTORE PUSH1 0x20 DUP3 ADD SWAP1 POP SWAP3 SWAP2 POP POP JUMP JUMPDEST DUP3 DUP2 DUP4 MCOPY PUSH0 DUP4 DUP4 ADD MSTORE POP POP POP JUMP JUMPDEST PUSH0 PUSH1 0x1F NOT PUSH1 0x1F DUP4 ADD AND SWAP1 POP SWAP2 SWAP1 POP JUMP JUMPDEST PUSH0 PUSH2 0x29C DUP3 PUSH2 0x25A JUMP JUMPDEST PUSH2 0x2A6 DUP2 DUP6 PUSH2 0x264 JUMP JUMPDEST SWAP4 POP PUSH2 0x2B6 DUP2 DUP6 PUSH1 0x20 DUP7 ADD PUSH2 0x274 JUMP JUMPDEST PUSH2 0x2BF DUP2 PUSH2 0x282 JUMP JUMPDEST DUP5 ADD SWAP2 POP POP SWAP3 SWAP2 POP POP JUMP JUMPDEST PUSH0 PUSH1 0x20 DUP3 ADD SWAP1 POP DUP2 DUP2 SUB PUSH0 DUP4 ADD MSTORE PUSH2 0x2E2 DUP2 DUP5 PUSH2 0x292 JUMP JUMPDEST SWAP1 POP SWAP3 SWAP2 POP POP JUMP JUMPDEST PUSH32 0x4E756D6265722069732030000000000000000000000000000000000000000000 PUSH0 DUP3 ADD MSTORE POP JUMP JUMPDEST PUSH0 PUSH2 0x31E PUSH1 0xB DUP4 PUSH2 0x264 JUMP JUMPDEST SWAP2 POP PUSH2 0x329 DUP3 PUSH2 0x2EA JUMP JUMPDEST PUSH1 0x20 DUP3 ADD SWAP1 POP SWAP2 SWAP1 POP JUMP JUMPDEST PUSH0 PUSH1 0x20 DUP3 ADD SWAP1 POP DUP2 DUP2 SUB PUSH0 DUP4 ADD MSTORE PUSH2 0x34B DUP2 PUSH2 0x312 JUMP JUMPDEST SWAP1 POP SWAP2 SWAP1 POP JUMP JUMPDEST PUSH32 0x4E487B7100000000000000000000000000000000000000000000000000000000 PUSH0 MSTORE PUSH1 0x11 PUSH1 0x4 MSTORE PUSH1 0x24 PUSH0 REVERT JUMPDEST PUSH0 PUSH2 0x389 DUP3 PUSH2 0x229 JUMP JUMPDEST SWAP2 POP PUSH2 0x394 DUP4 PUSH2 0x229 JUMP JUMPDEST SWAP3 POP DUP3 DUP3 SUB SWAP1 POP DUP2 DUP2 GT ISZERO PUSH2 0x3AC JUMPI PUSH2 0x3AB PUSH2 0x352 JUMP JUMPDEST JUMPDEST SWAP3 SWAP2 POP POP JUMP JUMPDEST PUSH0 PUSH2 0x3BC DUP3 PUSH2 0x229 JUMP JUMPDEST SWAP2 POP PUSH2 0x3C7 DUP4 PUSH2 0x229 JUMP JUMPDEST SWAP3 POP DUP3 DUP3 ADD SWAP1 POP DUP1 DUP3 GT ISZERO PUSH2 0x3DF JUMPI PUSH2 0x3DE PUSH2 0x352 JUMP JUMPDEST JUMPDEST SWAP3 SWAP2 POP POP JUMP INVALID LOG2 PUSH5 0x6970667358 0x22 SLT KECCAK256 SWAP8 CALLCODE SIGNEXTEND 0xA5 DUP2 0xF9 0xB8 0x4B CALLCODE PUSH24 0x8ECBBB643A698ED3C95F5691B73FE13568C3132D9A326473 PUSH16 0x6C634300081A00330000000000000000 "
				},
				"gasEstimates": {
					"creation": {
						"codeDepositCost": "210200",
						"executionCost": "infinite",
						"totalCost": "infinite"
					},
					"external": {
						"NAME()": "infinite",
						"decrement()": "infinite",
						"favouriteNumber()": "2446",
						"get()": "2476",
						"increment()": "infinite",
						"myAddress()": "infinite"
					}
				},
				"methodIdentifiers": {
					"NAME()": "a3f4df7e",
					"decrement()": "2baeceb7",
					"favouriteNumber()": "43ede4ae",
					"get()": "6d4ce63c",
					"increment()": "d09de08a",
					"myAddress()": "26b85ee1"
				}
			},
			"storageLayout": {
				"storage": [
					{
						"astId": 7,
						"contract": "contracts/alpha.sol:Alpha",
						"label": "favouriteNumber",
						"offset": 0,
						"slot": "0",
						"type": "t_uint256"
					}
				],
				"types": {
					"t_uint256": {
						"encoding": "inplace",
						"label": "uint256",
						"numberOfBytes": "32"
					}
				}
			},
			"userdoc": {
				"kind": "user",
				"methods": {},
				"version": 1
			}
		}
	}
}